:100000007DC00000ABC00000A9C00000A7C0000078
:10001000A5C00000A3C00000A1C000009FC0000058
:100020009DC000009BC0000099C0000097C0000068
:1000300095C0000093C0000091C000008FC0000078
:100040008DC000008BC0000089C0000087C0000088
:1000500085C0000083C0000081C000007FC0000098
:100060007DC000007BC0000079C0000077C00000A8
:1000700075C0000073C0000071C000006FC00000B8
:100080006DC000006BC0000069C0000067C00000C8
:1000900065C0000063C0000061C000005FC00000D8
:1000A0005DC000005BC0000059C0000057C00000E8
:1000B00055C0000053C0000051C000004FC00000F8
:1000C0004DC000004BC0000049C0000047C0000008
:1000D00045C0000043C0000041C000003FC0000018
:1000E0003DC000006D047204770479047E0483042B
:1000F00088048D04900493049804340711241FBECF
:10010000CFEFD1E2DEBFCDBF00E00CBF14E0A0E036
:10011000B2E0E0E9FAE100E00BBF02C007900D9207
:10012000A432B107D9F724E0A4E2B4E001C01D92E3
:10013000A637B207E1F710E0CEE7D0E000E006C056
:1001400021970109802FFE010E94D90BCD37D107DD
:1001500080E00807A9F766D60C94460D51CF8BE2D4
:1001600090E0C0D4882339F081E090E0909353046C
:1001700080935204089588E290E0B4D4882339F043
:1001800082E090E09093530480935204089589E2B2
:1001900090E0A8D4882339F083E090E09093530452
:1001A00080935204089510925304109252040895BB
:1001B00061E08AE190E0C7D361E088E190E0C3D3D9
:1001C00061E089E190E0BFD361E086E190E0BBD3DC
:1001D00061E087E190E0B7D3C2CF08950F931F93FA
:1001E00061E082E290E0AFD361E08FE190E0ABD3D9
:1001F00080912A0490912B04892B29F48AE290E0C3
:1002000071D48093000284E090E0E8D4DC01AD5F1B
:10021000B1402EE031E00E94E10B99237CF02CE804
:1002200030E040E050E00E94BD0B20934A04309340
:100230004B0440934C0450934D040EC02FE730E024
:1002400040E050E00E94BD0B20934A0430934B04E1
:1002500040934C0450934D0482E090E0BFD4DC0105
:10026000AE5FB1402FEF30E00E94E10B60934E048F
:1002700070934F04809350049093510410923B0468
:1002800010923C0410923D0410923E0410923704E8
:10029000109238041092390410923A04209100020E
:1002A0002223C1F116161706180619067CF42EE74C
:1002B00030E040E050E00E94BD0B20933B043093BF
:1002C0003C0440933D0450933E045BC08B019C0171
:1002D000992324F401581F4F2F4F3F4F689416F86D
:1002E00035952795179507951694D1F7C801992349
:1002F00024F488279927801B910B092E000CAA0B48
:10030000BB0B8093370490933804A0933904B093C7
:100310003A0437C01616170618061906CCF48B01D6
:100320009C01992324F401581F4F2F4F3F4F68948D
:1003300016F835952795179507951694D1F70093DC
:100340003704109338042093390430933A0419C0C9
:100350002EE730E040E050E00E94BD0BC901992338
:1003600024F488279927821B930B092E000CAA0BD3
:10037000BB0B80933B0490933C04A0933D04B0934B
:100380003E048091370490913804A0913904B091D3
:100390003A048F3F9105A105B10529F024F08FEFB4
:1003A00090E0A0E0B0E0BB231CF480E090E0DC0132
:1003B0008093370490933804A0933904B0933A049F
:1003C0001F910F91089510923B0410923C041092DB
:1003D0003D0410923E0410924A0410924B04109275
:1003E0004C0410924D0484E690E0A0E0B0E08093CD
:1003F000370490933804A0933904B0933A04809161
:100400002A0490912B04892B61F460E08FE190E045
:100410009AD2109237041092380410923904109234
:100420003A04089581E090E0D9D310922F041092FD
:1004300030041092310410923204409137045091EC
:1004400038046091390470913A04CA0109964397BF
:1004500048F0409333045093340460933504709310
:10046000360408C0109233041092340410923504FC
:1004700010923604DB01CA01880F991FAA1FBB1F07
:10048000840F951FA61FB71FBB235CF08F3F9105FC
:10049000A105B10539F034F08FEF90E0A0E0B0E0B5
:1004A00001C080E080932E04BA0187E090E005C28D
:1004B00008958F929F92AF92BF92CF92DF92EF9268
:1004C000FF920F931F93CF93DF9380E090E086D34A
:1004D000AC015250952F990F990B242F352F492F8E
:1004E000592F692F792F892F0E94700C01E00E94EB
:1004F000B70C822E932ED42FC52FB62FA72FF82FEF
:10050000E92F03E00E94B70CA22EB32EC42ED52EE5
:10051000E62EF72E082F192F282D392D4D2F5C2F61
:100520006B2F7A2F8F2F9E2F0E94D00CA22EB32ECE
:10053000C42ED52EE62EF72EE82F192F04E00E94A8
:10054000B70C0E2F0E94D90C0F2EFCE2AF2EF02D0F
:10055000BB24B394C12CD12CE12CF12C00E010E091
:100560000E94E90BD22FC32FB42FA52FF62FE72F10
:10057000022F132FD0934004C0934104B093420440
:10058000A0934304F0934404E0934504809346040D
:100590009093470480914A0490914B04A0914C049D
:1005A000B0914D04FC017396B79780F410924A0401
:1005B00010924B0410924C0410924D041195019529
:1005C0001109109349040093480419C09C01201B91
:1005D000310B3093490420934804275F3F4F233168
:1005E000310568F4892B8A2B8B2B49F01092490432
:1005F0001092480460E070E080E090E015C08091C7
:100600004804909149049C01992324F4222733271C
:10061000281B390BB901660F771F660F771F660F0E
:10062000771F621B730B3AF06F3F710529F024F0BE
:100630006FEF70E001C060E060933F041816190688
:1006400054F470E082E090E038D160E070E083E044
:1006500090E033D118C0992364F460E070E082E048
:1006600090E02BD160913F0470E083E090E025D1D1
:100670000AC060E070E082E090E01FD160E070E0CE
:1006800083E090E01AD1DF91CF911F910F91FF90FD
:10069000EF90DF90CF90BF90AF909F908F90089594
:1006A000609100028BE190E04ED16091000281E008
:1006B00068278CE190E047D180913B0490913C0405
:1006C0004396879740F410923B0410923C0410929A
:1006D0003D0410923E0480913B0490913C04A09113
:1006E0003D04B0913E048F3F9105A105B10529F06D
:1006F00024F08FEF90E0A0E0B0E0BB231CF480E09A
:1007000090E0DC0180933B0490933C04A0933D0473
:10071000B0933E0461E0892B8A2B8B2B09F460E0B7
:100720008EE190E010D161E080913704909138041F
:10073000A0913904B0913A04892B8A2B8B2B09F4B0
:1007400060E08DE190E0FFD060913B0470913C044B
:1007500088E090E0B2C0089502DD8091520490914B
:1007600053048130910551F01CF4892B49F00DC0E0
:100770008230910549F0039729F007C02FDD05C0AD
:1007800022DE03C020DE01C01EDE93DE4BDE88CFFA
:100790000895CF93DF9361E072E083E794E0B4D7EC
:1007A00081B18FEF81B997B187B9579A83B38760C9
:1007B00083BB84B1806F84B98DB188638DB99D9AF4
:1007C000E1E0F1E0808188678083EAE0F1E0808108
:1007D0008863808384B5806A84BDC0E8D0E0888166
:1007E000806A8883A0EBB0E08C91806A8C93E0E90A
:1007F000F0E08081806A808384B5836084BD8881D5
:10080000896088838C9183608C93808189608083E8
:1008100085B5826085BDE1E8F0E0808182608083FB
:10082000E1EBF0E0808182608083E1E9F0E08081AB
:1008300082608083E1EAF0E08081826080831092B0
:100840009B0010929A0010929D0010929C0018BC80
:1008500010929900109298001092A9001092A8008E
:100860001092AB001092AA001092AD001092AC0052
:100870001092B4001092B300109289001092880078
:1008800010928B0010928A0010928D0010928C00B2
:10089000ECE7F0E0808180648083EAE7F0E080812B
:1008A0008760808380818068808369E172E083E76C
:1008B00094E02AD7DF91CF9108956F3F710519F029
:1008C00014F06FEF70E0FC013297EB30F105A8F502
:1008D0008827EE58FF4F8F4F6CC770939B00609333
:1008E0009A00089570939D0060939C00089568BDE0
:1008F0000895709399006093980008957093A900EB
:100900006093A80008957093AB006093AA000895C7
:100910007093AD006093AC0008956093B4000895A7
:100920006093B300089570938900609388000895E0
:1009300070938B0060938A0008956EE272E083E703
:1009400094E0E2C60895CF93DF939C0126513109CC
:100950002032310558F0EC0164E672E083E794E060
:10096000BAD6BE0183E794E0FDD6B9C08E319105B9
:10097000F4F44697662369F042B121E030E0B90112
:1009800002C0660F771F8A95E2F7CB01842B82B9EC
:10099000A6C042B121E030E0B90102C0660F771F66
:1009A0008A95E2F7CB018095842382B998C086327C
:1009B00091051CF525E230E0A901481B590BCA013D
:1009C000662369F048B121E030E0B90102C0660F4A
:1009D000771F8A95E2F7CB01842B88B980C048B194
:1009E00021E030E0B90102C0660F771F8A95E2F777
:1009F000CB018095842388B972C08632910531F489
:100A0000662311F05F9A6BC05F9869C08A329105C6
:100A1000ECF429E230E0281B390B662359F034B39B
:100A200081E090E002C0880F991F2A95E2F7832B9E
:100A300084BB55C034B381E090E002C0880F991F99
:100A40002A95E2F78095832384BB49C082339105C0
:100A50000CF521E330E0281B390B662369F0EBE04D
:100A6000F1E0308181E090E002C0880F991F2A9563
:100A7000E2F7832B808333C0EBE0F1E0308181E04B
:100A800090E002C0880F991F2A95E2F78095832392
:100A9000808325C08633910514F525E330E0A90154
:100AA000481B590BCA01662369F045B121E030E0CB
:100AB000B90102C0660F771F8A95E2F7CB01842B3C
:100AC00085B90DC045B121E030E0B90102C0660F23
:100AD000771F8A95E2F7CB018095842385B9DF9152
:100AE000CF910895CF93DF938430910529F482B399
:100AF00085FB882780F96FC08E31910564F420B1A1
:100B000030E04697A90102C0559547958A95E2F7CE
:100B1000CA01817060C08632910584F426B130E04C
:100B200045E250E0BA01681B790BA90102C0559556
:100B300047956A95E2F7CA0181704DC086329105EA
:100B400029F489B1881F8827881F45C08A329105FA
:100B500084F422B330E049E250E0BA01681B790B1B
:100B6000A90102C0559547956A95E2F7CA018170BF
:100B700032C0823391058CF42091090130E041E3C9
:100B800050E0BA01681B790BA90102C05595479541
:100B90006A95E2F7CA0181701EC08633910584F41C
:100BA00023B130E045E350E0BA01681B790BA9019D
:100BB00002C0559547956A95E2F7CA0181700BC04E
:100BC000EC0163EA72E083E794E085D5BE0183E738
:100BD00094E0C8D580E0DF91CF910895CF93DF9363
:100BE000ECE7F0E02081207E2083EBE7F0E020813D
:100BF000277F20838830910534F4ECE7F0E0908182
:100C0000892B80831CC08031910564F4EBE7F0E010
:100C1000908198609083ECE7F0E090818850892B78
:100C200080830DC0EC0165EE72E083E794E053D55C
:100C3000BE0183E794E096D580E090E00CC0EAE73F
:100C4000F0E0808180648083808186FDFDCF80918B
:100C5000780090917900DF91CF91089565E273E07B
:100C600083E794E038D5609152047091530483E790
:100C700094E055D56AE273E083E794E02CD5609167
:100C8000000270E083E794E04AD567E373E083E70E
:100C900094E021D560913B0470913C0483E794E09B
:100CA0003ED565E473E083E794E015D560913704A1
:100CB0007091380483E794E032D562E573E083E70E
:100CC00094E009D560912E0470E083E794E027D585
:100CD00061E673E083E794E0FED460914A0470918A
:100CE0004B0483E794E01BD561E773E083E794E06E
:100CF000F2D4609140047091410483E794E00FD5F1
:100D000061E873E083E794E0E6D460913F0470E02B
:100D100083E794E004D561E973E083E794E0DBD4F2
:100D2000609148047091490483E794E0F8D464EA40
:100D300073E083E794E0CFD460912C0470912D048C
:100D400083E794E0ECD461EB73E083E794E0C3D4F1
:100D5000609124047091250483E794E0E0D46FEB64
:100D600073E083E794E0B7D460912A0470912B0478
:100D700083E794E0D4D467EC73E083E794E0ABD4EA
:100D8000609128047091290483E794E0EBC40895EE
:100D900024E534E04CE554E06DE574E081E694E050
:100DA0000DD480915D0490915E04A0915F04B09198
:100DB0006004B6FD36C0E4E5F4E0818190E0982F50
:100DC00088272081820F911D90932D0480932C04FD
:100DD000838190E0982F88272281820F911D909324
:100DE0002B0480932A04858190E0982F8827248102
:100DF000820F911D9093290480932804878190E0AD
:100E0000982F88272681AC01420F511D509327044B
:100E1000409326042085820F911D90932504809392
:100E20002404089560ED73E083E794E06DD4B1DCB1
:100E3000BFD921E04DE063E081E694E085D38111E4
:100E400006C060EE73E083E794E05ED405C062E024
:100E500074E083E794E058D460E081E694E0D5D173
:100E600097DF7ADCFBDEFCCF83E794E029D46FE2E6
:100E700081E694E05CC308950F931F93CF93DF93B3
:100E80001F921F92CDB7DEB700E021E040E856E99F
:100E900068E970E0CE010196E3D3BE016F5F7F4F3A
:100EA00085E794E001D40BE011E0F80180818B7FAD
:100EB000808360EC85E794E0FDD3F8018081846055
:100EC000808383EC99E00197F1F700C000000F9058
:100ED0000F90DF91CF911F910F910895FF920F9383
:100EE0001F93CF93DF931F921F92CDB7DEB7F62EDD
:100EF00000E021E040E856E968E970E0CE010196A3
:100F0000AFD3BE016F5F7F4F85E794E0CDD30BE099
:100F100011E0F80180818B7F808363E085E794E0B6
:100F2000C9D36F2D85E794E0C5D360E085E794E0F1
:100F3000C1D3F8019081946090830F900F90DF915E
:100F4000CF911F910F91FF900895CF92DF92EF9272
:100F5000FF920F931F93CF93DF931F921F92CDB7F2
:100F6000DEB7162F6A01F22E00E021E040E856E9D4
:100F700068E970E0CE01019673D3BE016F5F7F4FC9
:100F800085E794E091D3EBE0F1E080818B7F808373
:100F900063E085E794E08ED3612F85E794E08AD300
:100FA000FF2099F08601FA94EF2CF12C8FEFE81ACC
:100FB000F80AEC0CFD1C60E085E794E07BD3F801B7
:100FC00081938F01EE15FF05B1F7EBE0F1E0808131
:100FD000846080830F900F90DF91CF911F910F91CC
:100FE000FF90EF90DF90CF900895EF92FF920F93D4
:100FF0001F93CF93DF931F921F92CDB7DEB7E62EDC
:10100000F42E00E021E040E856E968E970E0CE0106
:10101000019626D3BE016F5F7F4F85E794E044D3EE
:101020000BE011E0F80180818B7F808362E085E72F
:1010300094E040D36E2D85E794E03CD36F2D85E797
:1010400094E038D3F8018081846080830F900F9002
:10105000DF91CF911F910F91FF90EF900895CF9264
:10106000DF92EF92FF920F931F93CF93DF931F9224
:101070001F92CDB7DEB7162F6A01F22E00E021E0F5
:1010800040E856E968E970E0CE010196E9D2BE0178
:101090006F5F7F4F85E794E007D3EBE0F1E080815D
:1010A0008B7F808362E085E794E004D3612F85E73E
:1010B00094E000D3FF2091F08601FA94EF2CF12CFC
:1010C0008FEFE81AF80AEC0CFD1CF80161918F0112
:1010D00085E794E0EFD20E151F05B9F7EBE0F1E0DC
:1010E0008081846080830F900F90DF91CF911F915A
:1010F0000F91FF90EF90DF90CF900895DF92EF92E5
:10110000FF920F931F93CF93DF931F921F92CDB740
:10111000DEB7D62EE42EF22E00E021E040E856E9BC
:1011200068E970E0CE0101969BD2BE016F5F7F4FF0
:1011300085E794E0B9D20BE011E0F80180818B7F64
:10114000808365E085E794E0B5D26D2D85E794E076
:10115000B1D26E2D85E794E0ADD26F2D85E794E096
:10116000A9D2F8018081846080830F900F90DF9175
:10117000CF911F910F91FF90EF90DF9008950F9303
:101180001F93CF93DF931F921F92CDB7DEB700E07E
:1011900021E040E856E968E970E0CE01019660D2AE
:1011A000BE016F5F7F4F85E794E07ED20BE011E0D8
:1011B000F80180818B7F808360EA85E794E07AD2B2
:1011C00060E085E794E076D2F801908194609083A6
:1011D0000F900F90DF91CF911F910F9108950F9372
:1011E0001F93CF938C01C62F262F40EE6FE086DF32
:1011F0006FE0C80173DE982F907E81E09C1301C0E0
:1012000080E0CF911F910F910895FC01618BE7CF92
:101210000895CF93DF93EC0140E46AE2E6DE45EE09
:1012200069E2CE01E2DE43E868E2CE01DEDE80E084
:10123000DF91CF9108950F931F93CF93DF9300D049
:101240001F92CDB7DEB74130C9F40C831B838901EF
:1012500022273327402F4C71440F440F440F502F47
:101260005370450F48604A8316950795129502956D
:101270000F7001271F700127098311C00C831B8386
:10128000890122273327402F4295440F407E4A830D
:10129000169507951695079516950795098324E0E9
:1012A000AE014F5F5F4FDBDE0F900F900F900F90FE
:1012B000DF91CF911F910F910895EF92FF920F93BD
:1012C0001F93CF937C0100E010E0980141E060E2C1
:1012D000B2DF00E010E0980141E064E2C701ABDF5B
:1012E00000E010E0980141E060E0C701A4DF00E009
:1012F00010E0980140E064E0C7019DDF00E010E0ED
:10130000980141E068E0C70196DF00E010E0980135
:1013100040E060E1C7018FDF00E010E0980141E0AC
:1013200064E1C70188DF00E010E0980140E068E177
:10133000C70181DFC0E340E06C2FC70156DE60E1EA
:101340006C0F40E0C70151DE60E26C0F40E0C70166
:101350004CDECF5FCE3379F740E060E6C70145DE73
:1013600040E060E7C70141DECF911F910F91FF90F0
:10137000EF900895FF920F931F93CF93DF93EC01AB
:10138000F62E142F022F78DD80E4898B60E8CE01E1
:1013900026DF811135C0402F612FCE013ADF811148
:1013A0002CC0CE018ADF43E06BE2CE011EDE4CE3AF
:1013B0006CE0CE011ADE40E06DE0CE0116DEFF20CB
:1013C00071F083E0F8121BC024E644E660E6CE012B
:1013D00095DE20E640E660E7CE0190DE0AC024E01C
:1013E00044E660E6CE018ADE20E040E660E7CE011A
:1013F00085DE6989CE01F3DE03C080E001C081E0B3
:10140000DF91CF911F910F91FF900895EF92FF927E
:101410000F931F93CF93DF9300D01F92CDB7DEB70A
:101420007A018901FA011082F90110821182128277
:10143000138224E0AE014F5F5F4F87DD2A8139813F
:10144000822F90E0959587959595879595958795A9
:101450009595879595958795F8E03F9F800D911D0F
:101460001124092E000CAA0BBB0BF8018083918379
:10147000A283B38323FF26C0880F991FAA1FBB1F17
:10148000880F991FAA1FBB1F2370820F911DA11DDA
:10149000B11DBA2FA92F982F88272B81820F911D5C
:1014A000A11DB11DBA2FA92F982F88272C81820F3B
:1014B000911DA11DB11D80839183A283B38381E01F
:1014C000F70180830F900F900F900F90DF91CF91D5
:1014D0001F910F91FF90EF9008950F931F93CF935B
:1014E000DF93EC01162F9C012F5F3F4FAC018EDF85
:1014F0006FEF610FCE01F2DC082F64E0610FCE01C7
:10150000EDDC8D8303FF03C091E09E8701C01E8642
:10151000282F2F702D83AE014A5F5F4F65E0610F6A
:10152000CE0113DDDF91CF911F910F910895FC0142
:10153000608BEBE0F1E0808184608083EAE0F1E0A1
:101540008081846080830895FF920F931F93CF93CF
:10155000DF93EC01162F042FF22E90D02F2D402F69
:10156000612FCE0107DF91E0811101C090E0892F4A
:10157000DF91CF911F910F91FF900895CF93DF934B
:10158000EC01FDDD80FF0AC061E6CE01A6DF20E0B0
:1015900041E06CE2CE01B2DD80E00DC081FF0AC007
:1015A00061E7CE019ADF20E042E06CE2CE01A6DDE9
:1015B00080E001C084E0DF91CF910895CF92DF9267
:1015C000EF92FF920F931F93CF93DF93EC017B0178
:1015D0008A01C22ED32ED2DF8430C9F188818823BC
:1015E00049F089819A81AB81BC81B06889839A83F3
:1015F000AB83BC838E85882349F089819A81AB8136
:10160000BC81B06489839A83AB83BC8389819A81CE
:10161000AB81BC81F70180839183A283B3838D81E9
:10162000F80180838D81882389F0DE011696EC2DE8
:10163000FD2D20E030E08D9181932F5F3F4F8D8114
:1016400090E028173907BCF380E001C080E0DF910B
:10165000CF911F910F91FF90EF90DF90CF90089561
:101660000F93FC01222311F090E501C090E70C706C
:10167000092B008381E081830F910895F894809174
:10168000740481110BC0589A209A84B1866084B981
:101690008CB580618CBD8CB580648CBD80917404E8
:1016A0008F5F809374040895FB0180818CBD8181DC
:1016B0008DBD08956EBD0DB407FEFDCF8EB50895A6
:1016C00088E08093C10096E09093C2001092C5001C
:1016D0008093C4000895CF93DF93FB0190819923F9
:1016E00081F020E0E0ECF0E0C6ECD0E0808185FF06
:1016F000FDCF98832F5FDB01A20FB11D9C9191114B
:10170000F5CFDF91CF910895CF93DF93EC01E3DF25
:1017100060E274E0CE01DFDFDF91CF9108950F9397
:101720001F93CF93DF93CDB7DEB760970FB6F894D2
:10173000DEBF0FBECDBF8C01CB014AE0BE016F5FA3
:101740007F4F71D1BE016F5F7F4FC801C4DF6096CC
:101750000FB6F894DEBF0FBECDBFDF91CF911F91C2
:101760000F910895CF93DF93EC01D9DF60E274E02D
:10177000CE01B1DFDF91CF910895052E97FB16F4CE
:1017800000940FD057FD05D01DD107FC02D046F4C0
:1017900008C050954095309521953F4F4F4F5F4F72
:1017A000089590958095709561957F4F8F4F9F4FCD
:1017B0000895EE0FFF1F881F8BBF0790F691E02D55
:1017C000199422D1B7FF0895821B930B0895689452
:1017D00001C0E894F92FF12B0AF027C0A0E0B0E097
:1017E000E3EFFBE093C0092E05941AF479D011239E
:1017F00092F4F0E80F26FFEFE094F0940095109536
:10180000B094C094D094A194BF0ACF0ADF0AEF0A23
:10181000FF0A0F0B1F0B13D007FC62D0CDB7DEB74A
:10182000ECE090C0689401C0E8948F929F92CF93AF
:10183000DF9305D0DF91CF919F908F9008958824FA
:101840009924F401E401B0E49F93AA279A158B042C
:101850009C04ED05FE05CF05D007A10798F4AD2F38
:10186000DC2FCF2FFE2FE92D982C892E982F872F34
:10187000762F652F542F432F322F2227B85031F760
:10188000BF9127C01B2EBF91BB27220F331F441FC0
:10189000551F661F771F881F991F881C991CEE1FF4
:1018A000FF1FCC1FDD1FAA1FBB1F8A149B04EC0562
:1018B000FD05CE05DF05A007B10748F08A189B0893
:1018C000EC09FD09CE09DF09A00BB10B21601A94C8
:1018D000E1F62EF49401AF01BE01CD01000C089594
:1018E000609570958095909530954095509521958F
:1018F0003F4F4F4F5F4F6F4F7F4F8F4F9F4F089519
:101900002F923F924F925F926F927F928F929F920F
:10191000AF92BF92CF92DF92EF92FF920F931F93FD
:10192000CF93DF93CDB7DEB7CA1BDB0B0FB6F894AE
:10193000DEBF0FBECDBF19942A88398848885F84DE
:101940006E847D848C849B84AA84B984C884DF805F
:10195000EE80FD800C811B81AA81B981CE0FD11D43
:101960000FB6F894DEBF0FBECDBFED0108950F9303
:10197000083090F0982F872F762F652F542F432F04
:10198000322F22270850F4CF220F331F441F551F38
:10199000661F771F881F991F0A95B2F70F91089548
:1019A0002A0D3B1D4C1D5D1D6E1D7F1D801F911F4F
:1019B00008952A193B094C095D096E097F09800BBE
:1019C000910B0895A1E21A2EAA1BBB1BFD010DC0AD
:1019D000AA1FBB1FEE1FFF1FA217B307E407F507DF
:1019E00020F0A21BB30BE40BF50B661F771F881FBB
:1019F000991F1A9469F760957095809590959B0151
:101A0000AC01BD01CF010895A29FB001B39FC001F9
:101A1000A39F700D811D1124911DB29F700D811D1A
:101A20001124911D0895BB274A3031F4992322F4E3
:101A3000BDE2909581959F4F01C0BB27FB015527C3
:101A4000AA27880F991FAA1FA41710F0A41B83951B
:101A50005051B9F7A05DAA3308F0A95DA193009792
:101A600079F7B111B1931192CB0100C0DC01FC01F7
:101A7000672F71917723E1F7329704C07C916D93C2
:101A800070836291AE17BF07C8F30895F894FFCF33
:101A9000014170706C79696E6720494F20736574DD
:101AA00074696E67732E2E2E00494F20736574740F
:101AB000696E672067656E65726174656400455282
:101AC000524F523A20747269656420746F207772A5
:101AD00069746520616E616C6F672076616C7565F5
:101AE00020746F20756E737570706F7274656420EA
:101AF00070696E004552524F523A207472696564A3
:101B000020746F20777269746520646967697461F5
:101B10006C2076616C756520746F20756E737570BE
:101B2000706F72746564206469676974616C207099
:101B3000696E004552524F523A20747269656420B2
:101B4000746F2072656164206469676974616C20D8
:101B500076616C75652066726F6D20756E73757039
:101B6000706F72746564206469676974616C207059
:101B7000696E3A20004552524F523A20747269659C
:101B80006420746F207265616420646967697461A0
:101B90006C2076616C75652066726F6D20756E7352
:101BA0007570706F7274656420616E616C6F672010
:101BB00070696E2000444D3A200020647269766599
:101BC000206469723A200020656E67696E655F6403
:101BD00076203D2000206272616B655F6476203D57
:101BE0002000206272616B696E675F6F76203D2016
:101BF00000207374656572696E675F6476203D20AE
:101C000000207374656572696E675F6376203D209E
:101C100000207374656572696E675F6F76203D2082
:101C200000207374656572696E675F64656C7461CA
:101C3000203D2000206C6F7720766F6C74203D2053
:101C400000206869676820766F6C74203D20002052
:101C500072706D203D20002074656D70203D200065
:101C6000416C6C657920486F6F702056322E3100C0
:101C70004D43503235313520496E697469616C6964
:101C80007A6564205375636365737366756C6C79EC
:101C900021004572726F7220496E697469616C69C6
:101CA0007A696E67204D4350323531352E2E2E0025
:041CB0000A0D000019
:00000001FF
