:100000009FC00000CDC00000CBC00000C9C00000F0
:10001000C7C00000C5C00000C3C00000C1C00000D0
:10002000BFC00000BDC00000BBC00000B9C00000E0
:10003000B7C00000B5C00000B3C00000B1C00000F0
:10004000AFC00000ADC00000ABC00000A9C0000000
:10005000A7C00000A5C00000A3C00000A1C0000010
:100060009FC000009DC000009BC0000099C0000020
:1000700097C0000095C0000093C0000091C0000030
:100080008FC000008DC000008BC0000089C0000040
:1000900087C0000085C0000083C0000081C0000050
:1000A0007FC000007DC000007BC0000079C0000060
:1000B00077C0000075C0000073C0000071C0000070
:1000C0006FC000006DC000006BC0000069C0000080
:1000D00067C0000065C0000063C0000061C0000090
:1000E0005FC00000A504AA04AF04B104B604BB04B9
:1000F000C004C504C804CB04DA04DA04DA04DA0460
:10010000DA04DA04DA04DA04DA04DA04DA04DA04FF
:10011000DA04DA04DA04DA04DA04DA04DA04DA04EF
:10012000DA04DA04DA04DA04DA04DA04DA04DA04DF
:10013000DA04DA04DA04DA04CB04D004D504410783
:1001400011241FBECFEFD1E2DEBFCDBF00E00CBF58
:1001500013E0A0E0B2E0EAEAFAE100E00BBF02C07F
:1001600007900D92A83EB107D9F724E0A8EEB3E0BE
:1001700001C01D92A133B207E1F710E0C0EAD0E060
:1001800000E006C021970109802FFE010E94E60BC6
:10019000CF39D10780E00807A9F74DD60C94530D4D
:1001A0002FCF88E290E0DBD4882339F081E090E023
:1001B00090930E0480930D04089586E290E0CFD4CE
:1001C000882339F082E090E090930E0480930D0430
:1001D00008958AE290E0C3D4882339F083E090E068
:1001E00090930E0480930D04089510920E041092C3
:1001F0000D04089561E081E290E0E2D361E083E2E2
:1002000090E0DED361E088E190E0DAD361E089E15B
:1002100090E0D6D3C6CF089561E082E290E0D0D3DB
:1002200061E080E290E0CCD38091EE039091EF0307
:10023000892B29F48CE290E092D4809300028EE026
:1002400090E009D5DC01B2502EE031E00E94EE0BC7
:1002500099237CF028E530E040E050E00E94CA0B92
:100260002093050430930604409307045093080438
:100270000EC020E530E040E050E00E94CA0B209321
:1002800005043093060440930704509308048DE05E
:1002900090E0E1D4DC01B2502FEF30E00E94EE0B91
:1002A0006093090470930A0480930B0490930C04E8
:1002B0001092F6031092F7031092F8031092F903CC
:1002C0001092F2031092F3031092F4031092F503CC
:1002D00020910002222371F116161706180619063E
:1002E0007CF420E530E040E050E00E94CA0B20930F
:1002F000F6033093F7034093F8035093F90347C094
:1003000020E530E040E050E00E94CA0BC90199238B
:1003100024F488279927821B930B092E000CAA0B23
:10032000BB0B8093F2039093F303A093F403B09379
:10033000F5032DC016161706180619067CF420E5DD
:1003400030E040E050E00E94CA0B2093F20330936B
:10035000F3034093F4035093F50319C020E530E014
:1003600040E050E00E94CA0BC901992324F4882779
:100370009927821B930B092E000CAA0BBB0B8093B1
:10038000F6039093F703A093F803B093F9038091D9
:10039000F2039091F303A091F403B091F5038F3F22
:1003A0009105A105B10529F024F08FEF90E0A0E0C0
:1003B000B0E0BB231CF480E090E0DC018093F2030A
:1003C0009093F303A093F403B093F5030895109270
:1003D000F6031092F7031092F8031092F9031092AB
:1003E000050410920604109207041092080484E693
:1003F00090E0A0E0B0E08093F2039093F303A09329
:10040000F403B093F5038091EE039091EF03892BF1
:1004100061F460E080E290E0D3D21092F203109297
:10042000F3031092F4031092F50308956091F20320
:100430007091F3038091F4039091F50399231CF4D8
:1004400060E070E0CB016093F2037093F30380935C
:10045000F4039093F50386E090E067C208958F92CD
:100460009F92AF92BF92CF92DF92EF92FF920F9343
:100470001F93CF93DF938FE090E0EDD3AC01435116
:100480005240952F990F990B242F352F492F592F13
:10049000692F792F892F0E947D0C01E00E94C40CE6
:1004A000822E932ED42FC52FB62FA72FF82FE92FEA
:1004B00003E00E94C40CA22EB32EC42ED52EE62E2D
:1004C000F72E082F192F282D392D4D2F5C2F6B2F2C
:1004D0007A2F8F2F9E2F0E94DD0CA22EB32EC42EBA
:1004E000D52EE62EF72EE82F192F04E00E94C40C1B
:1004F0000E2F0E94E60C0F2EFEE5AF2EF02DBB2432
:10050000B394C12CD12CE12CF12C00E010E00E941E
:10051000F60BD22FC32FB42FA52FF62FE72F022FC4
:10052000132FD093FB03C093FC03B093FD03A09360
:10053000FE03F093FF03E093000480930104909383
:10054000020480910504909106044396879790F4E5
:1005500010920504109206041092070410920804E9
:1005600080E090E09C01201B310B30930404209329
:1005700003041FC0C0900504D0900604E090070457
:10058000F0900804C601801B910B9C019093040419
:10059000809303040996439760F4CD28CE28CF2892
:1005A00041F0109204041092030420E030E090E047
:1005B0001BC0A901332324F444275527421B530BA6
:1005C000CA01880F991F880F991F880F991F841BD4
:1005D000950BC2F18F3F910519F014F08FEF90E069
:1005E000982F8150853918F09093FA0303C086E95B
:1005F0008093FA031216130664F46091FA0370E014
:1006000087E090E092D160E070E088E090E08DD1EA
:100610001CC0332364F460E070E087E090E085D193
:100620006091FA0370E088E090E07FD10EC060E056
:1006300070E087E090E079D160E070E088E090E0E1
:1006400074D103C01092FA03D5CFDF91CF911F91DF
:100650000F91FF90EF90DF90CF90BF90AF909F9061
:100660008F900895609100028EE190E0A9D1609191
:10067000000281E068278FE190E0A2D18091F6032B
:100680009091F7034396879740F41092F6031092E7
:10069000F7031092F8031092F9038091F6039091FA
:1006A000F703A091F803B091F9038F3F9105A105DD
:1006B000B10529F024F08FEF90E0A0E0B0E0BB237B
:1006C0001CF480E090E0DC018093F6039093F70344
:1006D000A093F803B093F90361E0892B8A2B8B2B4D
:1006E00009F460E08DE190E06BD161E08091F2036C
:1006F0009091F303A091F403B091F503892B8A2B19
:100700008B2B09F460E08CE190E05AD16091F60304
:100710007091F70384E090E008C1089542DD809174
:100720000D0490910E048130910551F01CF4892B39
:1007300049F00DC08230910549F0039729F007C0B8
:100740006BDD05C044DE03C042DE01C040DE8091A7
:10075000050490910604A0910704B09108048F301D
:1007600021E09207A105B1056CF08EE091E0A0E0D8
:10077000B0E08093050490930604A0930704B0931F
:10078000080411C0823F9E4FAF4FBF4F64F482EF09
:100790009EEFAFEFBFEF8093050490930604A09304
:1007A0000704B09308045BDE41DE5CCF0895CF936D
:1007B000DF9361E072E08EE294E0B3D781B1876F9E
:1007C00081B984B184B987B1886987B98AB18AB996
:1007D0008DB180638DB980B380BB83B383BBA1E04F
:1007E000B1E08C9180638C93E4E0F1E080818083C0
:1007F000E7E0F1E080818083EAE0F1E080818083BE
:100800009D9A8C9188678C9380818863808384B55E
:10081000806A84BD80EB90E0FC012081206A208307
:10082000C0E9D0E02881206A2883A0EAB0E02C91BA
:10083000206A2C9360E271E0FB012081206A208312
:1008400024B5236024BD40E850E0FA0120812B61EB
:100850002083FC0120812360208388818960888334
:100860008C9189608C93FB0180818960808385B540
:10087000826085BDE1E8F0E0808185608083E1EB06
:10088000F0E0808182608083E1E9F0E08081826035
:100890008083E1EAF0E0808182608083E1E2F1E040
:1008A00080818260808310929B0010929A00109247
:1008B0009D0010929C0018BC109299001092980014
:1008C0001092A9001092A8001092AB001092AA00FA
:1008D0001092AD001092AC001092B4001092B300D0
:1008E000109289001092880010922901109228011C
:1008F00010922B0110922A0110922D0110922C01BE
:10090000ECE7F0E0808180648083EAE7F0E08081BA
:100910008760808380818068808369E172E08EE2F5
:1009200094E0FFD6DF91CF9108956F3F710519F0E4
:1009300014F06FEF70E0FC013297ED32F105D0F565
:100940008827EE58FF4F8F4F41C770939B006093ED
:100950009A00089570939D0060939C00089568BD6F
:100960000895709399006093980008957093A9007A
:100970006093A80008957093AB006093AA00089557
:100980007093AD006093AC0008956093B400089537
:100990006093B300089570932D0160932C01089526
:1009A00070932B0160932A01089570932D01609339
:1009B0002C0108956EE272E08EE294E0B2C60895D2
:1009C000CF93DF939C01265131092032310558F035
:1009D000EC0164E672E08EE294E08AD6BE018EE21B
:1009E00094E0CDD6B9C08E319105F4F446976623D4
:1009F00069F042B121E030E0B90102C0660F771F13
:100A00008A95E2F7CB01842B82B9A6C042B121E0DE
:100A100030E0B90102C0660F771F8A95E2F7CB017B
:100A20008095842382B998C0863291051CF525E211
:100A300030E0A901481B590BCA01662369F048B18F
:100A400021E030E0B90102C0660F771F8A95E2F716
:100A5000CB01842B88B980C048B121E030E0B901D6
:100A600002C0660F771F8A95E2F7CB018095842339
:100A700088B972C08632910531F4662311F05F9A0D
:100A80006BC05F9869C08A329105ECF429E230E0CE
:100A9000281B390B662359F034B381E090E002C083
:100AA000880F991F2A95E2F7832B84BB55C034B376
:100AB00081E090E002C0880F991F2A95E2F78095A7
:100AC000832384BB49C0823391050CF521E330E0D8
:100AD000281B390B662369F0EBE0F1E0308181E0FF
:100AE00090E002C0880F991F2A95E2F7832B80833C
:100AF00033C0EBE0F1E0308181E090E002C0880F8C
:100B0000991F2A95E2F780958323808325C0863339
:100B1000910514F525E330E0A901481B590BCA01E2
:100B2000662369F045B121E030E0B90102C0660FEB
:100B3000771F8A95E2F7CB01842B85B90DC045B1AB
:100B400021E030E0B90102C0660F771F8A95E2F715
:100B5000CB018095842385B9DF91CF910895CF9300
:100B6000DF938430910529F482B385FB882780F9CF
:100B70006FC08E31910564F420B130E04697A90131
:100B800002C0559547958A95E2F7CA01817060C009
:100B90008632910584F426B130E045E250E0BA0196
:100BA000681B790BA90102C0559547956A95E2F734
:100BB000CA0181704DC08632910529F489B1881F20
:100BC0008827881F45C08A32910584F422B330E01B
:100BD00049E250E0BA01681B790BA90102C05595A2
:100BE00047956A95E2F7CA01817032C08233910558
:100BF0008CF42091090130E041E350E0BA01681B18
:100C0000790BA90102C0559547956A95E2F7CA018B
:100C100081701EC08633910584F423B130E045E332
:100C200050E0BA01681B790BA90102C055954795A0
:100C30006A95E2F7CA0181700BC0EC0163EA72E0C9
:100C40008EE294E055D5BE018EE294E098D580E026
:100C5000DF91CF910895CF93DF93ECE7F0E020810F
:100C6000207E2083EBE7F0E02081277F20838830FF
:100C7000910534F4ECE7F0E09081892B80831CC06F
:100C80008031910564F4EBE7F0E090819860908307
:100C9000ECE7F0E090818850892B80830DC0EC0157
:100CA00065EE72E08EE294E023D5BE018EE294E020
:100CB00066D580E090E00CC0EAE7F0E080818064D7
:100CC0008083808186FDFDCF8091780090917900AE
:100CD000DF91CF9108958EE090E0BDDFBC018EE200
:100CE00094E02AD565E273E08EE294E001D560914C
:100CF0000D0470910E048EE294E01ED56AE273E05A
:100D00008EE294E0F5D46091000270E08EE294E00F
:100D100013D567E373E08EE294E0EAD46091F603C2
:100D20007091F7038EE294E007D565E473E08EE2FC
:100D300094E0DED46091F2037091F3038EE294E0CC
:100D4000FBD462E573E08EE294E0D2D460910504B6
:100D5000709106048EE294E0EFD462E673E08EE2D6
:100D600094E0C6D46091FB037091FC038EE294E0A2
:100D7000E3D462E773E08EE294E0BAD46091FA03C0
:100D800070E08EE294E0D8D462E873E08EE294E002
:100D9000AFD460910304709104048EE294E0EFC438
:100DA00008952FE034E047E154E068E174E08CE11D
:100DB00094E011D48091180490911904A0911A0420
:100DC000B0911B04B6FD36C0EFE0F4E0818190E005
:100DD000982F88272081820F911D9093F103809393
:100DE000F003838190E0982F88272281820F911D44
:100DF0009093EF038093EE03858190E0982F8827EE
:100E00002481820F911D9093ED038093EC038781E1
:100E100090E0982F88272681AC01420F511D5093F6
:100E2000EB034093EA032085820F911D9093E90321
:100E30008093E803089565E973E08EE294E071D44D
:100E4000B6DCD8D960E082E290E0BADD21E04DE086
:100E500063E08CE194E085D3811106C065EA73E01C
:100E60008EE294E05ED405C067EC73E08EE294E01D
:100E700058D460E08CE194E0D5D193DF4FDC2BDFD8
:100E8000FCCF8EE294E029D46FE28CE194E05CC365
:100E900008950F931F93CF93DF931F921F92CDB7A7
:100EA000DEB700E021E040E856E968E970E0CE01F5
:100EB0000196E3D3BE016F5F7F4F80E394E001D4DE
:100EC0000BE011E0F80180818B7F808360EC80E390
:100ED00094E0FDD3F8018081846080838FE99FE0F6
:100EE0000197F1F700C000000F900F90DF91CF91B4
:100EF0001F910F910895FF920F931F93CF93DF934C
:100F00001F921F92CDB7DEB7F62E00E021E040E839
:100F100056E968E970E0CE010196AFD3BE016F5F7C
:100F20007F4F80E394E0CDD30BE011E0F8018081A6
:100F30008B7F808363E080E394E0C9D36F2D80E3EF
:100F400094E0C5D360E080E394E0C1D3F8019081E0
:100F5000946090830F900F90DF91CF911F910F912C
:100F6000FF900895CF92DF92EF92FF920F931F931D
:100F7000CF93DF931F921F92CDB7DEB7162F6A0172
:100F8000F22E00E021E040E856E968E970E0CE0189
:100F9000019673D3BE016F5F7F4F80E394E091D3DE
:100FA000EBE0F1E080818B7F808363E080E394E07D
:100FB0008ED3612F80E394E08AD3FF2099F08601DD
:100FC000FA94EF2CF12C8FEFE81AF80AEC0CFD1CC8
:100FD00060E080E394E07BD3F80181938F01EE150C
:100FE000FF05B1F7EBE0F1E08081846080830F9032
:100FF0000F90DF91CF911F910F91FF90EF90DF90B5
:10100000CF900895EF92FF920F931F93CF93DF93AA
:101010001F921F92CDB7DEB7E62EF42E00E021E03E
:1010200040E856E968E970E0CE01019626D3BE019A
:101030006F5F7F4F80E394E044D30BE011E0F80151
:1010400080818B7F808362E080E394E040D36E2DCB
:1010500080E394E03CD36F2D80E394E038D3F80133
:101060008081846080830F900F90DF91CF911F91DA
:101070000F91FF90EF900895CF92DF92EF92FF9241
:101080000F931F93CF93DF931F921F92CDB7DEB7BD
:10109000162F6A01F22E00E021E040E856E968E9E7
:1010A00070E0CE010196E9D2BE016F5F7F4F80E311
:1010B00094E007D3EBE0F1E080818B7F808362E0F6
:1010C00080E394E004D3612F80E394E000D3FF2019
:1010D00091F08601FA94EF2CF12C8FEFE81AF80AC0
:1010E000EC0CFD1CF80161918F0180E394E0EFD2DC
:1010F0000E151F05B9F7EBE0F1E080818460808375
:101100000F900F90DF91CF911F910F91FF90EF9073
:10111000DF90CF900895DF92EF92FF920F931F938D
:10112000CF93DF931F921F92CDB7DEB7D62EE42E5A
:10113000F22E00E021E040E856E968E970E0CE01D7
:1011400001969BD2BE016F5F7F4F80E394E0B9D2DE
:101150000BE011E0F80180818B7F808365E080E304
:1011600094E0B5D26D2D80E394E0B1D26E2D80E392
:1011700094E0ADD26F2D80E394E0A9D2F801808194
:10118000846080830F900F90DF91CF911F910F911A
:10119000FF90EF90DF9008950F931F93CF93DF930D
:1011A0001F921F92CDB7DEB700E021E040E856E97C
:1011B00068E970E0CE01019660D2BE016F5F7F4F9B
:1011C00080E394E07ED20BE011E0F80180818B7F18
:1011D000808360EA80E394E07AD260E080E394E088
:1011E00076D2F8019081946090830F900F90DF91F8
:1011F000CF911F910F9108950F931F93CF938C015F
:10120000C62F262F40EE6FE086DF6FE0C80173DE49
:10121000982F907E81E09C1301C080E0CF911F91B8
:101220000F910895FC01618BE7CF0895CF93DF9371
:10123000EC0140E46AE2E6DE45EE69E2CE01E2DE80
:1012400043E868E2CE01DEDE80E0DF91CF910895D1
:101250000F931F93CF93DF9300D01F92CDB7DEB7CC
:101260004130C9F40C831B83890122273327402F87
:101270004C71440F440F440F502F5370450F48607A
:101280004A8316950795129502950F7001271F70D6
:101290000127098311C00C831B838901222733276F
:1012A000402F4295440F407E4A8316950795169528
:1012B000079516950795098324E0AE014F5F5F4FB0
:1012C000DBDE0F900F900F900F90DF91CF911F9169
:1012D0000F910895EF92FF920F931F93CF937C018C
:1012E00000E010E0980141E060E2B2DF00E010E0D1
:1012F000980141E064E2C701ABDF00E010E0980133
:1013000041E060E0C701A4DF00E010E0980140E0A8
:1013100064E0C7019DDF00E010E0980141E068E073
:10132000C70196DF00E010E0980140E060E1C701EE
:101330008FDF00E010E0980141E064E1C70188DF41
:1013400000E010E0980140E068E1C70181DFC0E300
:1013500040E06C2FC70156DE60E16C0F40E0C70132
:1013600051DE60E26C0F40E0C7014CDECF5FCE3350
:1013700079F740E060E6C70145DE40E060E7C7017D
:1013800041DECF911F910F91FF90EF900895FF9252
:101390000F931F93CF93DF93EC01F62E142F022FA0
:1013A00078DD80E4898B60E8CE0126DF811135C0CD
:1013B000402F612FCE013ADF81112CC0CE018ADF90
:1013C00043E06BE2CE011EDE4CE36CE0CE011ADEA0
:1013D00040E06DE0CE0116DEFF2071F083E0F812F0
:1013E0001BC024E644E660E6CE0195DE20E640E63A
:1013F00060E7CE0190DE0AC024E044E660E6CE015C
:101400008ADE20E040E660E7CE0185DE6989CE0114
:10141000F3DE03C080E001C081E0DF91CF911F9136
:101420000F91FF900895EF92FF920F931F93CF9328
:10143000DF9300D01F92CDB7DEB77A018901FA01A0
:101440001082F901108211821282138224E0AE010F
:101450004F5F5F4F87DD2A813981822F90E095951C
:101460008795959587959595879595958795959564
:101470008795F8E03F9F800D911D1124092E000CE7
:10148000AA0BBB0BF80180839183A283B38323FF54
:1014900026C0880F991FAA1FBB1F880F991FAA1F5C
:1014A000BB1F2370820F911DA11DB11DBA2FA92F43
:1014B000982F88272B81820F911DA11DB11DBA2F56
:1014C000A92F982F88272C81820F911DA11DB11D56
:1014D00080839183A283B38381E0F70180830F909F
:1014E0000F900F900F90DF91CF911F910F91FF9070
:1014F000EF9008950F931F93CF93DF93EC01162F76
:101500009C012F5F3F4FAC018EDF6FEF610FCE016B
:10151000F2DC082F64E0610FCE01EDDC8D8303FF68
:1015200003C091E09E8701C01E86282F2F702D8357
:10153000AE014A5F5F4F65E0610FCE0113DDDF91C1
:10154000CF911F910F910895FC01608BEBE0F1E0CA
:10155000808184608083EAE0F1E080818460808320
:101560000895FF920F931F93CF93DF93EC01162FF3
:10157000042FF22E90D02F2D402F612FCE0107DFA8
:1015800091E0811101C090E0892FDF91CF911F91EF
:101590000F91FF900895CF93DF93EC01FDDD80FF65
:1015A0000AC061E6CE01A6DF20E041E06CE2CE0198
:1015B000B2DD80E00DC081FF0AC061E7CE019ADF95
:1015C00020E042E06CE2CE01A6DD80E001C084E0D4
:1015D000DF91CF910895CF92DF92EF92FF920F9318
:1015E0001F93CF93DF93EC017B018A01C22ED32E90
:1015F000D2DF8430C9F18881882349F089819A81BA
:10160000AB81BC81B06889839A83AB83BC838E85B0
:10161000882349F089819A81AB81BC81B064898338
:101620009A83AB83BC8389819A81AB81BC81F701AA
:1016300080839183A283B3838D81F80180838D8120
:10164000882389F0DE011696EC2DFD2D20E030E098
:101650008D9181932F5F3F4F8D8190E0281739073F
:10166000BCF380E001C080E0DF91CF911F910F912A
:10167000FF90EF90DF90CF9008950F93FC0122230D
:1016800011F090E501C090E70C70092B008381E018
:1016900081830F910895F89480912F0481110BC0DC
:1016A000589A209A84B1866084B98CB580618CBDCB
:1016B0008CB580648CBD80912F048F5F80932F0444
:1016C0000895FB0180818CBD81818DBD08956EBD23
:1016D0000DB407FEFDCF8EB5089588E08093C1005C
:1016E00096E09093C2001092C5008093C4000895C4
:1016F000CF93DF93FB019081992381F020E0E0EC10
:10170000F0E0C6ECD0E0808185FFFDCF98832F5FAD
:10171000DB01A20FB11D9C919111F5CFDF91CF910B
:101720000895CF93DF93EC01E3DF65EE73E0CE0124
:10173000DFDFDF91CF9108950F931F93CF93DF9356
:10174000CDB7DEB760970FB6F894DEBF0FBECDBF42
:101750008C01CB014AE0BE016F5F7F4F71D1BE01AA
:101760006F5F7F4FC801C4DF60960FB6F894DEBF8D
:101770000FBECDBFDF91CF911F910F910895CF93F1
:10178000DF93EC01D9DF65EE73E0CE01B1DFDF91CD
:10179000CF910895052E97FB16F400940FD057FDB6
:1017A00005D01DD107FC02D046F408C050954095E5
:1017B000309521953F4F4F4F5F4F089590958095FD
:1017C000709561957F4F8F4F9F4F0895EE0FFF1FCC
:1017D000881F8BBF0790F691E02D199422D1B7FF97
:1017E0000895821B930B0895689401C0E894F92F23
:1017F000F12B0AF027C0A0E0B0E0E0E0FCE093C0ED
:10180000092E05941AF479D0112392F4F0E80F26EA
:10181000FFEFE094F09400951095B094C094D094AC
:10182000A194BF0ACF0ADF0AEF0AFF0A0F0B1F0BB2
:1018300013D007FC62D0CDB7DEB7ECE090C068945F
:1018400001C0E8948F929F92CF93DF9305D0DF91F0
:10185000CF919F908F90089588249924F401E401FA
:10186000B0E49F93AA279A158B049C04ED05FE050E
:10187000CF05D007A10798F4AD2FDC2FCF2FFE2F77
:10188000E92D982C892E982F872F762F652F542F8E
:10189000432F322F2227B85031F7BF9127C01B2E7C
:1018A000BF91BB27220F331F441F551F661F771F91
:1018B000881F991F881C991CEE1FFF1FCC1FDD1F5E
:1018C000AA1FBB1F8A149B04EC05FD05CE05DF058E
:1018D000A007B10748F08A189B08EC09FD09CE095A
:1018E000DF09A00BB10B21601A94E1F62EF49401EC
:1018F000AF01BE01CD01000C0895609570958095F3
:10190000909530954095509521953F4F4F4F5F4FA3
:101910006F4F7F4F8F4F9F4F08952F923F924F925F
:101920005F926F927F928F929F92AF92BF92CF926F
:10193000DF92EF92FF920F931F93CF93DF93CDB778
:10194000DEB7CA1BDB0B0FB6F894DEBF0FBECDBFF0
:1019500019942A88398848885F846E847D848C84B1
:101960009B84AA84B984C884DF80EE80FD800C81CA
:101970001B81AA81B981CE0FD11D0FB6F894DEBFAD
:101980000FBECDBFED0108950F93083090F0982F52
:10199000872F762F652F542F432F322F2227085061
:1019A000F4CF220F331F441F551F661F771F881F58
:1019B000991F0A95B2F70F9108952A0D3B1D4C1DF2
:1019C0005D1D6E1D7F1D801F911F08952A193B0903
:1019D0004C095D096E097F09800B910B0895A1E206
:1019E0001A2EAA1BBB1BFD010DC0AA1FBB1FEE1F99
:1019F000FF1FA217B307E407F50720F0A21BB30BE4
:101A0000E40BF50B661F771F881F991F1A9469F75F
:101A100060957095809590959B01AC01BD01CF01BB
:101A20000895A29FB001B39FC001A39F700D811DB7
:101A30001124911DB29F700D811D1124911D0895D7
:101A4000BB274A3031F4992322F4BDE29095819569
:101A50009F4F01C0BB27FB015527AA27880F991F5D
:101A6000AA1FA41710F0A41B83955051B9F7A05DCD
:101A7000AA3308F0A95DA193009779F7B111B1934A
:101A80001192CB0100C0DC01FC01672F719177231B
:101A9000E1F7329704C07C916D9370836291AE1729
:0A1AA000BF07C8F30895F894FFCFC4
:101AAA00014170706C79696E6720494F20736574C3
:101ABA0074696E67732E2E2E00494F2073657474F5
:101ACA00696E672067656E65726174656400455268
:101ADA00524F523A20747269656420746F2077728B
:101AEA0069746520616E616C6F672076616C7565DB
:101AFA0020746F20756E737570706F7274656420D0
:101B0A0070696E004552524F523A20747269656488
:101B1A0020746F20777269746520646967697461DB
:101B2A006C2076616C756520746F20756E737570A4
:101B3A00706F72746564206469676974616C20707F
:101B4A00696E004552524F523A2074726965642098
:101B5A00746F2072656164206469676974616C20BE
:101B6A0076616C75652066726F6D20756E7375701F
:101B7A00706F72746564206469676974616C20703F
:101B8A00696E3A20004552524F523A207472696582
:101B9A006420746F20726561642064696769746186
:101BAA006C2076616C75652066726F6D20756E7338
:101BBA007570706F7274656420616E616C6F6720F6
:101BCA0070696E2000444D3A20002064726976657F
:101BDA00206469723A200020656E67696E655F64E9
:101BEA0076203D2000206272616B655F6476203D3D
:101BFA002000207374656572696E675F6476203DA4
:101C0A002000207374656572696E675F6376203D94
:101C1A002000207374656572696E675F6F76203D78
:101C2A002000207374656572696E675F64656C7401
:101C3A0061203D2000416C6C657920486F6F7020EF
:101C4A0056322E31004D43503235313520496E69B6
:101C5A007469616C697A656420537563636573732B
:101C6A0066756C6C7921004572726F7220496E69D3
:101C7A007469616C697A696E67204D4350323531F7
:081C8A00352E2E2E000A0D007C
:00000001FF
