S0170000416C6C657920486F6F702056322E312E7372656359
S11300007DC00000ABC00000A9C00000A7C0000074
S1130010A5C00000A3C00000A1C000009FC0000054
S11300209DC000009BC0000099C0000097C0000064
S113003095C0000093C0000091C000008FC0000074
S11300408DC000008BC0000089C0000087C0000084
S113005085C0000083C0000081C000007FC0000094
S11300607DC000007BC0000079C0000077C00000A4
S113007075C0000073C0000071C000006FC00000B4
S11300806DC000006BC0000069C0000067C00000C4
S113009065C0000063C0000061C000005FC00000D4
S11300A05DC000005BC0000059C0000057C00000E4
S11300B055C0000053C0000051C000004FC00000F4
S11300C04DC000004BC0000049C0000047C0000004
S11300D045C0000043C0000041C000003FC0000014
S11300E03DC00000EF03F403F903FB03000405041F
S11300F00A040F04120415041A04CD0611241FBEA9
S1130100CFEFD1E2DEBFCDBF00E00CBF14E0A0E032
S1130110B2E0E4E2FAE100E00BBF02C007900D9206
S1130120AE33B107D9F724E0AEE3B4E001C01D92C9
S1130130A739B207E1F710E0CEE7D0E000E006C04F
S113014021970109802FFE010E94940CCD37D1071D
S113015080E00807A9F7FFD50C94100D51CF8BE26E
S113016090E042D4882339F081E090E090937404C5
S113017080937304089588E290E036D4882339F09C
S113018082E090E09093740480937304089589E26C
S113019090E02AD4882339F083E090E090937404AB
S11301A08093730408951092740410927304089554
S11301B061E08AE190E049D361E088E190E045D3D1
S11301C061E089E190E041D361E086E190E03DD3D4
S11301D061E087E190E039D361E082E290E035D3D9
S11301E0BECF089561E081E290E02FD38091440472
S11301F090914504892B29F48AE290E0F5D3809309
S1130200000284E090E06CD4DC01AB5FB1402EE5E9
S113021031E00E949C0C29E830E040E050E00E946C
S1130220780C20936B0430936C0440936D045093CA
S11302306E0482E090E054D48E5F91409C012C5F68
S11302403F4F2930310568F0092E000CAA0BBB0B77
S113025080936F0490937004A0937104B09372041C
S113026008C010926F0410927004109271041092DE
S1130270720410925E0410925F0410926004109253
S1130280610410925104109252041092530410927B
S1130290540480910002882351F180916F0490915D
S11302A07004A0917104B0917204181619061A060C
S11302B01B064CF480935E0490935F04A093600447
S11302C0B093610408959C01992324F422273327D1
S11302D0281B390BC901330FAA0BBB0B80935104A4
S11302E090935204A0935304B093540408958091BE
S11302F06F0490917004A0917104B0917204181667
S113030019061A061B064CF4809351049093520468
S1130310A0935304B093540408959C01992324F4A6
S113032022273327281B390BC901330FAA0BBB0B18
S113033080935E0490935F04A0936004B09361047F
S1130340089510925E0410925F041092600410925B
S1130350610410926B0410926C0410926D0410925C
S11303606E0410925104109252041092530410928D
S113037054048091440490914504892B21F460E055
S113038081E290E062C2089581E090E0A9D31092E6
S1130390490410924A0410924B0410924C04409168
S11303A05104509152046091530470915404CA0151
S11303B00996439748F040934D0450934E0460933C
S11303C04F047093500408C010924D0410924E04D0
S11303D010924F0410925004DB01CA01880F991F38
S11303E0AA1FBB1F840F951FA61FB71FBB235CF05A
S11303F08F3F9105A105B10539F034F08FEF90E0FE
S1130400A0E0B0E001C080E080934804BA0187E036
S113041090E0D4C108950F931F9380E090E060D3DF
S1130420DC01B25028EE33E00E949C0C2FEF33E045
S113043040E050E00E94780C88279927DC01821B59
S1130440930BA40BB50B8093630490936404A09363
S11304506504B093660480916B0490916C04C1961A
S11304608336910540F410926B0410926C04109240
S11304706D0410926E0480916B0490916C04A091B1
S11304806D04B0916E0489019A01080F191F2A1F87
S11304903B1F00936704109368042093690430930E
S11304A06A04C8010996439770F410926704109285
S11304B068041092690410926A0460E070E000E03D
S11304C010E0980111C0C801992324F488279927C2
S11304D0801B910BBC01660F771F660F771F660F99
S11304E0771F681B790B3AF06F3F710529F024F0F0
S11304F06FEF70E001C060E060936204332354F452
S113050070E083E090E05AD160E070E082E090E037
S113051055D11BC0101611061206130664F460E0D0
S113052070E083E090E04AD16091620470E082E080
S113053090E044D10AC060E070E083E090E03ED1F6
S113054060E070E082E090E039D11F910F9108954E
S1130550609144047091450480E090E00E94870B10
S113056020E030E0A9010E94ED0B0E94560B60933D
S113057056047093570480935804909359046091DF
S113058000028BE190E061D16091000281E0682774
S11305908CE190E05AD161E080915E0490915F0417
S11305A0A0916004B0916104892B8A2B8B2B09F4F0
S11305B060E08EE190E049D161E080915104909136
S11305C05204A0915304B0915404892B8A2B8B2B91
S11305D009F460E08DE190E038D140915E045091DF
S11305E05F0460916004709161048091560490915D
S11305F05704A0915804B09159049A01AB01281BE7
S1130600390B4A0B5B0B20935A0430935B044093E1
S11306105C0450935D04ADEFB2E00E94A20C6D390E
S11306202FEF7207820792076CF0611524E67207B8
S1130630810591054CF424E630E040E050E00E944E
S1130640780C03C020E001C02FEF20935504622FE3
S113065070E088E090E0B2C0089581DD8091730479
S1130660909174048130910551F01CF4892B49F068
S11306700DC08230910549F0039729F007C0B2DD1F
S113068005C05FDE03C05DDE01C05BDEC4DE7CDE70
S11306905FCF0895CF93DF9361E072E084E994E043
S11306A0CCD781B18FEF81B997B187B9579A83B30A
S11306B0876083BB84B1806F84B98DB188638DB941
S11306C09D9AE1E0F1E0808188678083EAE0F1E0CF
S11306D080818863808384B5806A84BDC0E8D0E06B
S11306E08881806A8883A0EBB0E08C91806A8C93C7
S11306F0E0E9F0E08081806A808384B5836084BD12
S11307008881896088838C9183608C9380818960DF
S1130710808385B5826085BDE1E8F0E080818260F8
S11307208083E1EBF0E0808182608083E1E9F0E0A6
S1130730808182608083E1EAF0E08081826080834E
S113074010929B0010929A0010929D0010929C00AF
S113075018BC10929900109298001092A90010925F
S1130760A8001092AB001092AA001092AD00109253
S1130770AC001092B4001092B30010928900109251
S1130780880010928B0010928A0010928D001092B3
S11307908C00ECE7F0E0808180648083EAE7F0E09D
S11307A080818760808380818068808369E172E0D2
S11307B084E994E042D7DF91CF9108956F3F7105AA
S11307C019F014F06FEF70E0FC013297EB30F10593
S11307D0B0F58827EE58FF4F8F4F0C94940C70930C
S11307E09B0060939A00089570939D0060939C0011
S11307F0089568BD089570939900609398000895D2
S11308007093A9006093A80008957093AB0060935F
S1130810AA0008957093AD006093AC0008956093AE
S1130820B40008956093B3000895709389006093B1
S11308308800089570938B0060938A0008956EE297
S113084072E084E994E0F9C60895CF93DF939C01A4
S1130850265131092032310558F0EC0164E672E08A
S113086084E994E0D1D6BE0184E994E014D7B9C0F8
S11308708E319105F4F44697662369F042B121E084
S113088030E0B90102C0660F771F8A95E2F7CB0109
S1130890842B82B9A6C042B121E030E0B90102C084
S11308A0660F771F8A95E2F7CB018095842382B97E
S11308B098C0863291051CF525E230E0A901481B59
S11308C0590BCA01662369F048B121E030E0B9014F
S11308D002C0660F771F8A95E2F7CB01842B88B993
S11308E080C048B121E030E0B90102C0660F771F33
S11308F08A95E2F7CB018095842388B972C0863249
S1130900910531F4662311F05F9A6BC05F9869C05A
S11309108A329105ECF429E230E0281B390B662376
S113092059F034B381E090E002C0880F991F2A95F2
S1130930E2F7832B84BB55C034B381E090E002C05E
S1130940880F991F2A95E2F78095832384BB49C0B9
S1130950823391050CF521E330E0281B390B662323
S113096069F0EBE0F1E0308181E090E002C0880FB3
S1130970991F2A95E2F7832B808333C0EBE0F1E0E3
S1130980308181E090E002C0880F991F2A95E2F738
S113099080958323808325C08633910514F525E350
S11309A030E0A901481B590BCA01662369F045B11F
S11309B021E030E0B90102C0660F771F8A95E2F7A3
S11309C0CB01842B85B90DC045B121E030E0B901DC
S11309D002C0660F771F8A95E2F7CB0180958423C6
S11309E085B9DF91CF910895CF93DF93843091053A
S11309F029F482B385FB882780F96FC08E31910575
S1130A0064F420B130E04697A90102C0559547959A
S1130A108A95E2F7CA01817060C08632910584F438
S1130A2026B130E045E250E0BA01681B790BA90118
S1130A3002C0559547956A95E2F7CA0181704DC089
S1130A408632910529F489B1881F8827881F45C0FB
S1130A508A32910584F422B330E049E250E0BA01CD
S1130A60681B790BA90102C0559547956A95E2F771
S1130A70CA01817032C0823391058CF4209109013E
S1130A8030E041E350E0BA01681B790BA90102C0D0
S1130A90559547956A95E2F7CA0181701EC0863361
S1130AA0910584F423B130E045E350E0BA01681BBA
S1130AB0790BA90102C0559547956A95E2F7CA01D9
S1130AC081700BC0EC0163EA72E084E994E09CD588
S1130AD0BE0184E994E0DFD580E0DF91CF910895F1
S1130AE0CF93DF93ECE7F0E02081207E2083EBE7D7
S1130AF0F0E02081277F20838830910534F4ECE7EF
S1130B00F0E09081892B80831CC08031910564F4CE
S1130B10EBE7F0E0908198609083ECE7F0E090815F
S1130B208850892B80830DC0EC0165EE72E084E966
S1130B3094E06AD5BE0184E994E0ADD580E090E00C
S1130B400CC0EAE7F0E0808180648083808186FDC8
S1130B50FDCF8091780090917900DF91CF91089535
S1130B6065E273E084E994E04FD560917304709179
S1130B70740484E994E06CD56AE273E084E994E057
S1130B8043D56091000270E084E994E061D567E3A5
S1130B9073E084E994E038D560915E0470915F0459
S1130BA084E994E055D566E473E084E994E02CD5B7
S1130BB0609156047091570484E994E049D562E544
S1130BC073E084E994E020D56091550470E084E9F1
S1130BD094E03ED561E673E084E994E015D5609134
S1130BE051047091520484E994E032D56EE673E0C6
S1130BF084E994E009D56091480470E084E994E0C4
S1130C0027D56DE773E084E994E0FED460916B042A
S1130C1070916C0484E994E01BD56EE873E084E978
S1130C2094E0F2D4609163047091640484E994E0E4
S1130C300FD56FE973E084E994E0E6D4609162042F
S1130C4070E084E994E004D560EB73E084E994E017
S1130C50DBD4609167047091680484E994E0F8D46B
S1130C606BEB73E084E994E0CFD460914604709117
S1130C70470484E994E0ECD469EC73E084E994E0FB
S1130C80C3D460913E0470913F0484E994E0E0D4BD
S1130C9068ED73E084E994E0B7D460914404709102
S1130CA0450484E994E0D4D461EE73E084E994E0EB
S1130CB0ABD4609142047091430484E994E0EBC4A2
S1130CC0089525E734E04DE754E06EE774E082E8E8
S1130CD094E00DD480917E0490917F04A0918004CF
S1130CE0B0918104B6FD36C0E5E7F4E0818190E07F
S1130CF0982F88272081820F911D90934704809319
S1130D004604838190E0982F88272281820F911DC9
S1130D109093450480934404858190E0982F88271C
S1130D202481820F911D9093430480934204878110
S1130D3090E0982F88272681AC01420F511D5093D3
S1130D404104409340042085820F911D90933F04F9
S1130D5080933E0408956BEE73E084E994E06DD4CF
S1130D6099DC26DA21E04DE063E082E894E085D363
S1130D70811106C06BEF73E084E994E05ED405C092
S1130D806DE174E084E994E058D460E082E894E092
S1130D90D5D197DF62DCE4DEFCCF84E994E029D48A
S1130DA06FE282E894E05CC308950F931F93CF939E
S1130DB0DF931F921F92CDB7DEB700E021E040E839
S1130DC056E968E970E0CE010196E3D3BE016F5F96
S1130DD07F4F86E994E001D40BE011E0F8018081B3
S1130DE08B7F808360EC86E994E0FDD3F8018081F9
S1130DF08460808383EC99E00197F1F700C00000E0
S1130E000F900F90DF91CF911F910F910895FF9252
S1130E100F931F93CF93DF931F921F92CDB7DEB72B
S1130E20F62E00E021E040E856E968E970E0CE01E2
S1130E300196AFD3BE016F5F7F4F86E994E0CDD3B7
S1130E400BE011E0F80180818B7F808363E086E909
S1130E5094E0C9D36F2D86E994E0C5D360E086E9B8
S1130E6094E0C1D3F8019081946090830F900F9027
S1130E70DF91CF911F910F91FF900895CF92DF9250
S1130E80EF92FF920F931F93CF93DF931F921F92C2
S1130E90CDB7DEB7162F6A01F22E00E021E040E85C
S1130EA056E968E970E0CE01019673D3BE016F5F25
S1130EB07F4F86E994E091D3EBE0F1E080818B7F72
S1130EC0808363E086E994E08ED3612F86E994E021
S1130ED08AD3FF2099F08601FA94EF2CF12C8FEF3E
S1130EE0E81AF80AEC0CFD1C60E086E994E07BD378
S1130EF0F80181938F01EE15FF05B1F7EBE0F1E006
S1130F008081846080830F900F90DF91CF911F9137
S1130F100F91FF90EF90DF90CF900895EF92FF92A2
S1130F200F931F93CF93DF931F921F92CDB7DEB71A
S1130F30E62EF42E00E021E040E856E968E970E08E
S1130F40CE01019626D3BE016F5F7F4F86E994E000
S1130F5044D30BE011E0F80180818B7F808362E051
S1130F6086E994E040D36E2D86E994E03CD36F2D5E
S1130F7086E994E038D3F8018081846080830F90FF
S1130F800F90DF91CF911F910F91FF90EF900895F3
S1130F90CF92DF92EF92FF920F931F93CF93DF9341
S1130FA01F921F92CDB7DEB7162F6A01F22E00E012
S1130FB021E040E856E968E970E0CE010196E9D203
S1130FC0BE016F5F7F4F86E994E007D3EBE0F1E069
S1130FD080818B7F808362E086E994E004D3612F73
S1130FE086E994E000D3FF2091F08601FA94EF2C77
S1130FF0F12C8FEFE81AF80AEC0CFD1CF801619152
S11310008F0186E994E0EFD20E151F05B9F7EBE0E6
S1131010F1E08081846080830F900F90DF91CF9105
S11310201F910F91FF90EF90DF90CF900895DF9282
S1131030EF92FF920F931F93CF93DF931F921F9210
S1131040CDB7DEB7D62EE42EF22E00E021E040E844
S113105056E968E970E0CE0101969BD2BE016F5F4C
S11310607F4F86E994E0B9D20BE011E0F80180816A
S11310708B7F808365E086E994E0B5D26D2D86E9A7
S113108094E0B1D26E2D86E994E0ADD26F2D86E95D
S113109094E0A9D2F8018081846080830F900F903E
S11310A0DF91CF911F910F91FF90EF90DF90089502
S11310B00F931F93CF93DF931F921F92CDB7DEB789
S11310C000E021E040E856E968E970E0CE010196CD
S11310D060D2BE016F5F7F4F86E994E07ED20BE061
S11310E011E0F80180818B7F808360EA86E994E0D7
S11310F07AD260E086E994E076D2F8019081946037
S113110090830F900F90DF91CF911F910F910895CD
S11311100F931F93CF938C01C62F262F40EE6FE0C1
S113112086DF6FE0C80173DE982F907E81E09C1308
S113113001C080E0CF911F910F910895FC01618B54
S1131140E7CF0895CF93DF93EC0140E46AE2E6DE53
S113115045EE69E2CE01E2DE43E868E2CE01DEDE7E
S113116080E0DF91CF9108950F931F93CF93DF9386
S113117000D01F92CDB7DEB74130C9F40C831B8376
S1131180890122273327402F4C71440F440F440F09
S1131190502F5370450F48604A8316950795129552
S11311A002950F7001271F700127098311C00C835A
S11311B01B83890122273327402F4295440F407E09
S11311C04A831695079516950795169507950983ED
S11311D024E0AE014F5F5F4FDBDE0F900F900F9066
S11311E00F90DF91CF911F910F910895EF92FF928D
S11311F00F931F93CF937C0100E010E0980141E02E
S113120060E2B2DF00E010E0980141E064E2C7016F
S1131210ABDF00E010E0980141E060E0C701A4DF2B
S113122000E010E0980140E064E0C7019DDF00E0C9
S113123010E0980141E068E0C70196DF00E010E0AB
S1131240980140E060E1C7018FDF00E010E0980101
S113125041E064E1C70188DF00E010E0980140E06C
S113126068E1C70181DFC0E340E06C2FC70156DEAF
S113127060E16C0F40E0C70151DE60E26C0F40E0BA
S1131280C7014CDECF5FCE3379F740E060E6C7019B
S113129045DE40E060E7C70141DECF911F910F9129
S11312A0FF90EF900895FF920F931F93CF93DF93D6
S11312B0EC01F62E142F022F78DD80E4898B60E890
S11312C0CE0126DF811135C0402F612FCE013ADFD8
S11312D081112CC0CE018ADF43E06BE2CE011EDE19
S11312E04CE36CE0CE011ADE40E06DE0CE0116DE88
S11312F0FF2071F083E0F8121BC024E644E660E6A8
S1131300CE0195DE20E640E660E7CE0190DE0AC01D
S113131024E044E660E6CE018ADE20E040E660E7B1
S1131320CE0185DE6989CE01F3DE03C080E001C011
S113133081E0DF91CF911F910F91FF900895EF927B
S1131340FF920F931F93CF93DF9300D01F92CDB7DB
S1131350DEB77A018901FA011082F9011082118243
S11313601282138224E0AE014F5F5F4F87DD2A8132
S11313703981822F90E095958795959587959595D8
S113138087959595879595958795F8E03F9F800D6E
S1131390911D1124092E000CAA0BBB0BF8018083AC
S11313A09183A283B38323FF26C0880F991FAA1FAA
S11313B0BB1F880F991FAA1FBB1F2370820F911D8B
S11313C0A11DB11DBA2FA92F982F88272B81820F19
S11313D0911DA11DB11DBA2FA92F982F88272C81EB
S11313E0820F911DA11DB11D80839183A283B383BC
S11313F081E0F70180830F900F900F900F90DF91A1
S1131400CF911F910F91FF90EF9008950F931F9329
S1131410CF93DF93EC01162F9C012F5F3F4FAC015C
S11314208EDF6FEF610FCE01F2DC082F64E0610FF5
S1131430CE01EDDC8D8303FF03C091E09E8701C0E4
S11314401E86282F2F702D83AE014A5F5F4F65E003
S1131450610FCE0113DDDF91CF911F910F9108959C
S1131460FC01608BEBE0F1E0808184608083EAE042
S1131470F1E08081846080830895FF920F931F932D
S1131480CF93DF93EC01162F042FF22E90D02F2D43
S1131490402F612FCE0107DF91E0811101C090E060
S11314A0892FDF91CF911F910F91FF900895CF93D2
S11314B0DF93EC01FDDD80FF0AC061E6CE01A6DF0B
S11314C020E041E06CE2CE01B2DD80E00DC081FF9E
S11314D00AC061E7CE019ADF20E042E06CE2CE016F
S11314E0A6DD80E001C084E0DF91CF910895CF9222
S11314F0DF92EF92FF920F931F93CF93DF93EC0150
S11315007B018A01C22ED32ED2DF8430C9F18881B7
S1131510882349F089819A81AB81BC81B068898331
S11315209A83AB83BC838E85882349F089819A8111
S1131530AB81BC81B06489839A83AB83BC8389818A
S11315409A81AB81BC81F70180839183A283B383A9
S11315508D81F80180838D81882389F0DE011696C0
S1131560EC2DFD2D20E030E08D9181932F5F3F4FD6
S11315708D8190E028173907BCF380E001C080E03A
S1131580DF91CF911F910F91FF90EF90DF90CF905B
S113159008950F93FC01222311F090E501C090E718
S11315A00C70092B008381E081830F910895F894D6
S11315B08091950481110BC0589A209A84B1866059
S11315C084B98CB580618CBD8CB580648CBD8091F0
S11315D095048F5F809395040895FB0180818CBDF1
S11315E081818DBD08956EBD0DB407FEFDCF8EB50E
S11315F0089588E08093C10096E09093C200109211
S1131600C5008093C4000895CF93DF93FB019081BC
S1131610992381F020E0E0ECF0E0C6ECD0E080819A
S113162085FFFDCF98832F5FDB01A20FB11D9C9135
S11316309111F5CFDF91CF910895CF93DF93EC0112
S1131640E3DF6BE374E0CE01DFDFDF91CF91089538
S11316500F931F93CF93DF93CDB7DEB760970FB689
S1131660F894DEBF0FBECDBF8C01CB014AE0BE01B2
S11316706F5F7F4FA2D1BE016F5F7F4FC801C4DF90
S113168060960FB6F894DEBF0FBECDBFDF91CF9149
S11316901F910F910895CF93DF93EC01D9DF6BE392
S11316A074E0CE01B1DFDF91CF91089504D0689446
S11316B0B1118DC0089570D088F09F5790F0B92F64
S11316C09927B751A0F0D1F0660F771F881F991F93
S11316D01AF0BA95C9F712C0B13081F077D0B1E0F1
S11316E0089574C0672F782F8827B85F39F0B93F01
S11316F0CCF3869577956795B395D9F73EF4909595
S11317008095709561957F4F8F4F9F4F0895E89412
S113171009C097FB3EF490958095709561957F4F35
S11317208F4F9F4F9923A9F0F92F96E9BB279395E3
S1131730F695879577956795B795F111F8CFFAF4F3
S1131740BB0F11F460FF1BC06F5F7F4F8F4F9F4F24
S113175016C0882311F096E911C0772321F09EE882
S1131760872F762F05C0662371F096E8862F70E0E8
S113177060E02AF09A95660F771F881FDAF7880FC2
S11317809695879597F9089557FD9058440F551FDE
S113179059F05F3F71F04795880F97FB991F61F0EF
S11317A09F3F79F087950895121613061406551F66
S11317B0F2CF4695F1DF08C0161617061806991FD2
S11317C0F1CF86957105610508940895E894BB27C7
S11317D066277727CB0197F908950BD078C069D095
S11317E028F06ED018F0952309F05AC05FC0112478
S11317F0EECFCADFA0F3959FD1F3950F50E0551FAC
S1131800629FF001729FBB27F00DB11D639FAA2751
S1131810F00DB11DAA1F649F6627B00DA11D661FA0
S1131820829F2227B00DA11D621F739FB00DA11DC1
S1131830621F839FA00D611D221F749F3327A00D7B
S1131840611D231F849F600D211D822F762F6A2F17
S113185011249F5750408AF0E1F088234AF0EE0F9C
S1131860FF1FBB1F661F771F881F91505040A9F7A9
S11318709E3F510570F014C0AACF5F3FECF3983E31
S1131880DCF3869577956795B795F795E7959F5F10
S1131890C1F7FE2B880F911D9695879597F90895AA
S11318A097F99F6780E870E060E008959FEF80EC0F
S11318B0089500240A9416161706180609060895B2
S11318C000240A9412161306140605060895092E18
S11318D00394000C11F4882352F0BB0F40F4BF2B87
S11318E011F460FF04C06F5F7F4F8F4F9F4F0895C7
S11318F0052E97FB16F400940FD057FD05D02CD07D
S113190007FC02D046F408C05095409530952195C7
S11319103F4F4F4F5F4F0895909580957095619517
S11319207F4F8F4F9F4F0895EE0FFF1F881F8BBF70
S11319300790F691E02D199431D0B7FF0895821BDA
S1131940930B08952BD0A59F900DB49F900DA49F49
S1131950800D911D11240895A1E21A2EAA1BBB1B10
S1131960FD010DC0AA1FBB1FEE1FFF1FA217B30767
S1131970E407F50720F0A21BB30BE40BF50B661F7D
S1131980771F881F991F1A9469F760957095809541
S113199090959B01AC01BD01CF010895A29FB001B8
S11319A0B39FC001A39F700D811D1124911DB29F8F
S11319B0700D811D1124911D0895BB274A3031F407
S11319C0992322F4BDE2909581959F4F01C0BB27D6
S11319D0FB015527AA27880F991FAA1FA41710F0E7
S11319E0A41B83955051B9F7A05DAA3308F0A95DF3
S11319F0A193009779F7B111B1931192CB0100C073
S1131A00DC01FC01672F71917723E1F7329704C061
S1131A107C916D9370836291AE17BF07C8F30895EC
S1071A20F894FFCF64
S1131A24014170706C79696E6720494F2073657445
S1131A3474696E67732E2E2E00494F207365747477
S1131A44696E672067656E657261746564004552EA
S1131A54524F523A20747269656420746F2077720D
S1131A6469746520616E616C6F672076616C75655D
S1131A7420746F20756E737570706F727465642052
S1131A8470696E004552524F523A2074726965640B
S1131A9420746F207772697465206469676974615E
S1131AA46C2076616C756520746F20756E73757027
S1131AB4706F72746564206469676974616C207002
S1131AC4696E004552524F523A207472696564201B
S1131AD4746F2072656164206469676974616C2041
S1131AE476616C75652066726F6D20756E737570A2
S1131AF4706F72746564206469676974616C2070C2
S1131B04696E3A20004552524F523A207472696504
S1131B146420746F20726561642064696769746108
S1131B246C2076616C75652066726F6D20756E73BA
S1131B347570706F7274656420616E616C6F672078
S1131B4470696E2000444D3A200020647269766501
S1131B54206469723A200020656E67696E655F646B
S1131B6476203D2020002073706565642E203D207E
S1131B74200020656E67696E655F6F76203D2020C6
S1131B8400206272616B655F6476203D20002062F0
S1131B9472616B696E675F6F76203D2000207374F9
S1131BA4656572696E675F6476203D20200020734A
S1131BB474656572696E675F6376203D202000203A
S1131BC47374656572696E675F6F76203D202000CB
S1131BD42064656C7461203D202000206C6F7720A4
S1131BE4766F6C74203D2020002068696768207635
S1131BF46F6C74203D2020002072706D203D2020E5
S1131C04002074656D70203D202000416C6C657962
S1131C1420486F6F702056322E31004D43503235B8
S1131C24313520496E697469616C697A656420533D
S1131C3475636365737366756C6C792100457272A0
S1131C446F7220496E697469616C697A696E672080
S1111C544D4350323531352E2E2E000A0D0030
S9030000FC
