S0170000416C6C657920486F6F702056322E312E7372656359
S11300007DC00000A9C00000A7C00000A5C000007A
S1130010A3C00000A1C000009FC000009DC000005C
S11300209BC0000099C0000097C0000095C000006C
S113003093C0000091C000008FC000008DC000007C
S11300408BC0000089C0000087C0000085C000008C
S113005083C0000081C000007FC000007DC000009C
S11300607BC0000079C0000077C0000075C00000AC
S113007073C0000071C000006FC000006DC00000BC
S11300806BC0000069C0000067C0000065C00000CC
S113009063C0000061C000005FC000005DC00000DC
S11300A05BC0000059C0000057C0000055C00000EC
S11300B053C0000051C000004FC000004DC00000FC
S11300C04BC0000049C0000047C0000045C000000C
S11300D043C0000041C000003FC000003DC000001C
S11300E03BC00000E302E802ED02EF02F402F90271
S11300F0FE020303060309030E03F00411241FBECA
S1130100CFEFD1E2DEBFCDBF00E00CBF13E0A0E033
S1130110B2E0E0E1FCE000E00BBF02C007900D920A
S1130120A43BB107D9F723E0A4EBB3E001C01D92CF
S1130130AC3CB207E1F710E0CEE7D0E000E005C048
S113014021970109802FFE01DBD4CD37D10780E050
S11301500807B1F735D45AC553CF8BE290E038D3B2
S1130160882339F081E090E09093CA038093C90317
S1130170089588E290E02CD3882339F082E090E05F
S11301809093CA038093C903089589E290E020D331
S1130190882339F083E090E09093CA038093C903E5
S11301A008951092CA031092C903089561E08AE188
S11301B090E03FD261E088E190E03BD261E089E1E8
S11301C090E037D261E086E190E033D261E087E1EC
S11301D090E02FD261E082E290E02BD2BECF08956E
S11301E061E081E290E025D28AE290E0F1D280934E
S11301F0000282E090E068D38E5F91409093B70351
S11302008093B60384E090E05FD3DC01AB5FB14040
S11302102EE531E07DD429E830E040E050E054D4CC
S11302202093C5033093C6034093C7035093C80378
S11302301092B5031092B4038091B6039091B70362
S113024099237CF49C01992324F422273327281B27
S1130250390B3093B5032093B4031092B703109273
S1130260B6032091B6033091B70344E6429FC00120
S1130270439F900D11242BE730E0B90112D4709301
S1130280B7036093B6034091B4035091B5036AEF8A
S1130290649FC001659F900D1124B90102D470932D
S11302A0B5036093B40308951092BB031092BA038C
S11302B01092BC031092B9031092B8038091B60354
S11302C09091B703892B21F460E081E290E0B1C101
S11302D008950F931F9380E090E0F6D2DC01B250B2
S11302E028EE33E015D42FEF33E040E050E0ECD3B8
S11302F088279927DC01821B930BA40BB50B8093F1
S1130300BD039093BE03A093BF03B093C003809139
S1130310C5039091C603C1968336910540F41092AB
S1130320C5031092C6031092C7031092C8038091AC
S1130330C5039091C603A091C703B091C803890176
S11303409A01080F191F2A1F3B1F0093C103109322
S1130350C2032093C3033093C403C801099643978F
S113036070F41092C1031092C2031092C30310924E
S1130370C40380E090E000E010E0980111C0B801EF
S1130380112324F466277727601B710BCB01880F98
S1130390991F880F991F880F991F861B970B3AF096
S11303A08F3F910529F024F08FEF90E001C080E0A9
S11303B08093BC0333238CF461E072E08BEC93E014
S11303C01ED36091BC0370E083E090E0ECD060E069
S11303D070E082E090E0E7D025C010161106120606
S11303E013068CF461E172E08BEC93E008D360E0D7
S11303F070E083E090E0D7D06091BC0370E082E0CD
S113040090E0D1D00FC061E272E08BEC93E0F7D2C0
S113041060E070E083E090E0C6D060E070E082E0ED
S113042090E0C1D01F910F91089597DE8091C90388
S11304309091CA038130910551F01CF4892B49F045
S11304400DC08230910549F0039729F007C0C8DE3A
S113045005C02ADF03C028DF01C026DF3ACF089594
S1130460CF93DF9361E372E08BEC93E0E1D281B14F
S11304709FEF91B984B18F6084B987B197B9579AC6
S113048083B3876083BB84B1806F84B98DB1886383
S11304908DB99D9AE1E0F1E0808188678083EAE08C
S11304A0F1E080818863808384B5806A84BD80E8BC
S11304B090E0FC012081206A2083C0EBD0E02881F9
S11304C0206A2883A0E9B0E02C91206A2C9340EAAA
S11304D050E0FA012081206A208324B5236024BDE2
S11304E0FC012081296020838881836088838C912A
S11304F089608C93FA0180818960808385B58260EC
S113050085BDE1E8F0E0808182608083E1EBF0E08A
S1130510808182608083E1E9F0E080818260808371
S1130520E1EAF0E080818260808310929B00109267
S11305309A0010929D0010929C0018BC1092990091
S1130540109298001092A9001092A8001092AB008B
S11305501092AA001092AD001092AC001092B40058
S11305601092B300109289001092880010928B00B0
S113057010928A0010928D0010928C00ECE7F0E04B
S1130580808180648083EAE7F0E0808187608083F3
S113059080818068808369E472E08BEC93E048D2C8
S11305A0DF91CF9108956F3F710519F014F06FEF4B
S11305B070E0FC013297EB30F105A8F58827EE587E
S11305C0FF4F8F4F9DC270939B0060939A000895D4
S11305D070939D0060939C00089568BD0895709386
S11305E099006093980008957093A9006093A800FF
S11305F008957093AB006093AA0008957093AD00C2
S11306006093AC0008956093B40008956093B300C0
S113061008957093890060938800089570938B0007
S113062060938A0008956EE572E08BEC93E000C25B
S11306300895CF93DF939C0126513109203231056F
S113064058F0EC0164E972E08BEC93E0D8D1BE0180
S11306508BEC93E01BD2B9C08E319105F4F446972C
S1130660662369F042B121E030E0B90102C0660FAF
S1130670771F8A95E2F7CB01842B82B9A6C042B1D9
S113068021E030E0B90102C0660F771F8A95E2F7D6
S1130690CB018095842382B998C0863291051CF5DC
S11306A025E230E0A901481B590BCA01662369F011
S11306B048B121E030E0B90102C0660F771F8A9586
S11306C0E2F7CB01842B88B980C048B121E030E047
S11306D0B90102C0660F771F8A95E2F7CB018095B6
S11306E0842388B972C08632910531F4662311F0EF
S11306F05F9A6BC05F9869C08A329105ECF429E275
S113070030E0281B390B662359F034B381E090E0C4
S113071002C0880F991F2A95E2F7832B84BB55C02A
S113072034B381E090E002C0880F991F2A95E2F764
S11307308095832384BB49C0823391050CF521E362
S113074030E0281B390B662369F0EBE0F1E03081DF
S113075081E090E002C0880F991F2A95E2F7832B6D
S1130760808333C0EBE0F1E0308181E090E002C0AF
S1130770880F991F2A95E2F780958323808325C0EB
S11307808633910514F525E330E0A901481B590B84
S1130790CA01662369F045B121E030E0B90102C025
S11307A0660F771F8A95E2F7CB01842B85B90DC0BC
S11307B045B121E030E0B90102C0660F771F8A9588
S11307C0E2F7CB018095842385B9DF91CF91089519
S11307D0CF93DF939C01265131092032310560F01B
S11307E0EC0163ED72E08BEC93E009D1BE018BEC7C
S11307F093E04CD180E065C08E31910564F420B162
S113080030E04697A90102C0559547958A95E2F7CD
S1130810CA01817056C08632910584F426B130E055
S113082045E250E0BA01681B790BA90102C0559555
S113083047956A95E2F7CA01817043C086329105F3
S113084029F489B1881F8827881F3BC08A32910503
S113085084F422B330E049E250E0BA01681B790B1A
S1130860A90102C0559547956A95E2F7CA018170BE
S113087028C0823391058CF42091090130E041E3D2
S113088050E0BA01681B790BA90102C05595479540
S11308906A95E2F7CA01817014C08633910584F425
S11308A023B130E045E350E0BA01681B790BA9019C
S11308B002C0559547956A95E2F7CA01817001C057
S11308C080E0DF91CF910895CF93DF93ECE7F0E0E0
S11308D02081207E2083EBE7F0E02081277F2083A6
S11308E08830910534F4ECE7F0E09081892B808323
S11308F01CC08031910564F4EBE7F0E090819860CE
S11309009083ECE7F0E090818850892B80830DC0C0
S1130910EC0163E173E08BEC93E071D0BE018BECEE
S113092093E0B4D080E090E00CC0EAE7F0E080818E
S113093080648083808186FDFDCF809178009091D2
S11309407900DF91CF91089563E573E08BEC93E038
S113095056D06091C9037091CA038BEC93E073D0B5
S113096062E673E08BEC93E04AD06091C50370912A
S1130970C6038BEC93E067D063E773E08BEC93E002
S11309803ED06091BD037091BE038BEC93E05BD0CD
S113099064E873E08BEC93E032D06091BC0370E0C8
S11309A08BEC93E050D065E973E08BEC93E027D0B7
S11309B06091C1037091C2038BEC93E067C008950A
S11309C060EA73E08BEC93E033D04ADDEFDBBCDF0D
S11309D02CDD8FE39CE90197F1F700C00000F7CF0D
S11309E08BEC93E001C0089588E08093C10096E009
S11309F09093C2001092C5008093C4000895CF93D1
S1130A00DF93FB019081992381F020E0E0ECF0E09A
S1130A10C6ECD0E0808185FFFDCF98832F5FDB019A
S1130A20A20FB11D9C919111F5CFDF91CF91089543
S1130A30CF93DF93EC01E3DF60EB73E0CE01DFDF04
S1130A40DF91CF9108950F931F93CF93DF93CDB789
S1130A50DEB760970FB6F894DEBF0FBECDBF8C0132
S1130A60CB014AE0BE016F5F7F4F9DD0BE016F5F37
S1130A707F4FC801C4DF60960FB6F894DEBF0FBE87
S1130A80CDBFDF91CF911F910F910895CF93DF9345
S1130A90EC01D9DF60EB73E0CE01B1DFDF91CF91E0
S1130AA0089597FB072E16F4009406D077FD08D01E
S1130AB035D007FC05D03EF4909581959F4F08955D
S1130AC0709561957F4F0895052E97FB16F4009459
S1130AD00FD057FD05D036D007FC02D046F408C02D
S1130AE050954095309521953F4F4F4F5F4F089556
S1130AF090958095709561957F4F8F4F9F4F089586
S1130B00EE0FFF1F881F8BBF0790F691E02D1994FD
S1130B103BD0B7FF0895821B930B0895AA1BBB1B00
S1130B2051E107C0AA1FBB1FA617B70710F0A61BE9
S1130B30B70B881F991F5A95A9F780959095BC010A
S1130B40CD010895A1E21A2EAA1BBB1BFD010DC005
S1130B50AA1FBB1FEE1FFF1FA217B307E407F50769
S1130B6020F0A21BB30BE40BF50B661F771F881F45
S1130B70991F1A9469F760957095809590959B01DB
S1130B80AC01BD01CF010895A29FB001B39FC00184
S1130B90A39F700D811D1124911DB29F700D811DA5
S1130BA01124911D0895BB274A3031F4992322F46E
S1130BB0BDE2909581959F4F01C0BB27FB0155274E
S1130BC0AA27880F991FAA1FA41710F0A41B8395A6
S1130BD05051B9F7A05DAA3308F0A95DA19300971D
S1130BE079F7B111B1931192CB0100C0DC01FC0182
S1130BF0672F71917723E1F7329704C07C916D934D
S1130C0070836291AE17BF07C8F30895F894FFCFBD
S1130C1001207374656572696E67206C6566742063
S1130C2000207374656572696E6720726967687401
S1130C3000206E6F74207374656572696E6720207E
S1130C40004170706C79696E6720494F2073657438
S1130C5074696E67732E2E2E00494F207365747469
S1130C60696E672067656E657261746564004552DC
S1130C70524F523A20747269656420746F207772FF
S1130C8069746520616E616C6F672076616C75654F
S1130C9020746F20756E737570706F727465642044
S1130CA070696E004552524F523A207472696564FD
S1130CB020746F2077726974652064696769746150
S1130CC06C2076616C756520746F20756E73757019
S1130CD0706F72746564206469676974616C2070F4
S1130CE0696E004552524F523A207472696564200D
S1130CF0746F2072656164206469676974616C2033
S1130D0076616C75652066726F6D20756E73757093
S1130D10706F72746564206469676974616C2070B3
S1130D20696E004552524F523A20747269656420CC
S1130D30746F2072656164206469676974616C20F2
S1130D4076616C75652066726F6D20756E73757053
S1130D50706F7274656420616E616C6F6720706976
S1130D606E200064726976696E67206D6F64653AFF
S1130D702000207374656572696E675F6476203D38
S1130D80202000207374656572696E675F63762046
S1130D903D202000207374656572696E675F6F7013
S1130DA0203D2020002064656C7461203D202000DB
S1130DB0416C6C657920486F6F702056322E31007B
S1070DC00A0D000014
S9030000FC
