:100000007DC00000ABC00000A9C00000A7C0000078
:10001000A5C00000A3C00000A1C000009FC0000058
:100020009DC000009BC0000099C0000097C0000068
:1000300095C0000093C0000091C000008FC0000078
:100040008DC000008BC0000089C0000087C0000088
:1000500085C0000083C0000081C000007FC0000098
:100060007DC000007BC0000079C0000077C00000A8
:1000700075C0000073C0000071C000006FC00000B8
:100080006DC000006BC0000069C0000067C00000C8
:1000900065C0000063C0000061C000005FC00000D8
:1000A0005DC000005BC0000059C0000057C00000E8
:1000B00055C0000053C0000051C000004FC00000F8
:1000C0004DC000004BC0000049C0000047C0000008
:1000D00045C0000043C0000041C000003FC0000018
:1000E0003DC00000FF03040409040B0410041504C0
:1000F0001A041F04220425042A04DD0611241FBE4D
:10010000CFEFD1E2DEBFCDBF00E00CBF14E0A0E036
:10011000B2E0E4E4FAE100E00BBF02C007900D9208
:10012000A433B107D9F724E0A4E3B4E001C01D92E1
:10013000AD38B207E1F710E0CEE7D0E000E006C04E
:1001400021970109802FFE010E94A40CCD37D10711
:1001500080E00807A9F70FD60C94200D51CF8BE251
:1001600090E052D4882339F081E090E090936A04C3
:1001700080936904089588E290E046D4882339F09A
:1001800082E090E090936A0480936904089589E284
:1001900090E03AD4882339F083E090E090936A04A9
:1001A00080936904089510926A0410926904089576
:1001B00061E08AE190E059D361E088E190E055D3B5
:1001C00061E089E190E051D361E086E190E04DD3B8
:1001D00061E087E190E049D361E082E290E045D3BD
:1001E000BECF089561E081E290E03FD380913A0470
:1001F00090913B04892B29F48AE290E005D4809306
:10020000000284E090E07CD4DC01AB5FB1402EE5DD
:1002100031E00E94AC0C29E830E040E050E00E9460
:10022000880C2093610430936204409363045093DC
:10023000640482E090E064D48E5F91409C012C5F66
:100240003F4F2930310568F0092E000CAA0BBB0B7B
:100250008093650490936604A0936704B093680448
:1002600008C0109265041092660410926704109200
:10027000680410925404109255041092560410927F
:1002800057041092470410924804109249041092A7
:100290004A0480910002882351F180916504909175
:1002A0006604A0916704B0916804181619061A062E
:1002B0001B064CF48093540490935504A093560469
:1002C000B093570408959C01992324F422273327DF
:1002D000281B390BC901330FAA0BBB0B80934704B2
:1002E00090934804A0934904B0934A0408958091E0
:1002F000650490916604A0916704B0916804181693
:1003000019061A061B064CF4809347049093480480
:10031000A0934904B0934A0408959C01992324F4BE
:1003200022273327281B390BC901330FAA0BBB0B1C
:100330008093540490935504A0935604B0935704AB
:10034000089510925404109255041092560410927D
:1003500057048BEF91E0A0E0B0E0809361049093AC
:100360006204A0936304B093640484E690E0A0E088
:10037000B0E08093470490934804A0934904B0935D
:100380004A0480913A0490913B04892B61F460E027
:1003900081E290E06AD210924704109248041092D1
:1003A000490410924A04089581E090E0A9D3109284
:1003B0003F04109240041092410410924204409174
:1003C0004704509148046091490470914A04CA015D
:1003D0000996439748F04093430450934404609334
:1003E00045047093460408C01092430410924404DC
:1003F0001092450410924604DB01CA01880F991F30
:10040000AA1FBB1F840F951FA61FB71FBB235CF03D
:100410008F3F9105A105B10539F034F08FEF90E0E1
:10042000A0E0B0E001C080E080933E04BA0187E024
:1004300090E0D4C108950F931F9380E090E060D3C3
:10044000DC01B25028EE33E00E94AC0C2FEF33E019
:1004500040E050E00E94880C88279927DC01821B2D
:10046000930BA40BB50B8093590490935A04A0935B
:100470005B04B0935C048091610490916204C19626
:100480008336910540F41092610410926204109238
:100490006304109264048091610490916204A091BD
:1004A0006304B091640489019A01080F191F2A1F7F
:1004B0003B1F00935D0410935E0420935F04309310
:1004C0006004C8010996439770F410925D0410927D
:1004D0005E0410925F041092600460E070E000E03F
:1004E00010E0980111C0C801992324F488279927A6
:1004F000801B910BBC01660F771F660F771F660F7D
:10050000771F681B790B3AF06F3F710529F024F0D3
:100510006FEF70E001C060E060935804332354F43F
:1005200070E083E090E05AD160E070E082E090E01B
:1005300055D11BC0101611061206130664F460E0B4
:1005400070E083E090E04AD16091580470E082E06E
:1005500090E044D10AC060E070E083E090E03ED1DA
:1005600060E070E082E090E039D11F910F91089532
:1005700060913A0470913B0480E090E00E94970BF8
:1005800020E030E0A9010E94FD0B0E94660B609301
:100590004C0470934D0480934E0490934F046091EB
:1005A00000028BE190E061D16091000281E0682758
:1005B0008CE190E05AD161E080915404909155040F
:1005C000A0915604B0915704892B8A2B8B2B09F4E8
:1005D00060E08EE190E049D161E080914704909124
:1005E0004804A0914904B0914A04892B8A2B8B2B93
:1005F00009F460E08DE190E038D1409154045091CD
:100600005504609156047091570480914C04909168
:100610004D04A0914E04B0914F049A01AB01281BE8
:10062000390B4A0B5B0B20935004309351044093D9
:10063000520450935304ADEFB2E00E94B20C6D39F6
:100640002FEF7207820792076CF0611524E672079C
:10065000810591054CF424E630E040E050E00E9432
:10066000880C03C020E001C02FEF20934B04622FC1
:1006700070E088E090E0B2C0089571DD8091690477
:1006800090916A048130910551F01CF4892B49F056
:100690000DC08230910549F0039729F007C0A2DD13
:1006A00005C04FDE03C04DDE01C04BDEC4DE7CDE84
:1006B0005FCF0895CF93DF9361E072E08AE894E022
:1006C000CCD781B18FEF81B997B187B9579A83B3EE
:1006D000876083BB84B1806F84B98DB188638DB925
:1006E0009D9AE1E0F1E0808188678083EAE0F1E0B3
:1006F00080818863808384B5806A84BDC0E8D0E04F
:100700008881806A8883A0EBB0E08C91806A8C93AA
:10071000E0E9F0E08081806A808384B5836084BDF5
:100720008881896088838C9183608C9380818960C3
:10073000808385B5826085BDE1E8F0E080818260DC
:100740008083E1EBF0E0808182608083E1E9F0E08A
:10075000808182608083E1EAF0E080818260808332
:1007600010929B0010929A0010929D0010929C0093
:1007700018BC10929900109298001092A900109243
:10078000A8001092AB001092AA001092AD00109237
:10079000AC001092B4001092B30010928900109235
:1007A000880010928B0010928A0010928D00109297
:1007B0008C00ECE7F0E0808180648083EAE7F0E081
:1007C00080818760808380818068808369E172E0B6
:1007D0008AE894E042D7DF91CF9108956F3F710589
:1007E00019F014F06FEF70E0FC013297EB30F10577
:1007F000B0F58827EE58FF4F8F4F0C94A40C7093E0
:100800009B0060939A00089570939D0060939C00F4
:10081000089568BD089570939900609398000895B5
:100820007093A9006093A80008957093AB00609343
:10083000AA0008957093AD006093AC000895609392
:10084000B40008956093B300089570938900609395
:100850008800089570938B0060938A0008956EE27B
:1008600072E08AE894E0F9C60895CF93DF939C0183
:10087000265131092032310558F0EC0164E672E06E
:100880008AE894E0D1D6BE018AE894E014D7B9C0D2
:100890008E319105F4F44697662369F042B121E068
:1008A00030E0B90102C0660F771F8A95E2F7CB01ED
:1008B000842B82B9A6C042B121E030E0B90102C068
:1008C000660F771F8A95E2F7CB018095842382B962
:1008D00098C0863291051CF525E230E0A901481B3D
:1008E000590BCA01662369F048B121E030E0B90133
:1008F00002C0660F771F8A95E2F7CB01842B88B977
:1009000080C048B121E030E0B90102C0660F771F16
:100910008A95E2F7CB018095842388B972C086322C
:10092000910531F4662311F05F9A6BC05F9869C03E
:100930008A329105ECF429E230E0281B390B66235A
:1009400059F034B381E090E002C0880F991F2A95D6
:10095000E2F7832B84BB55C034B381E090E002C042
:10096000880F991F2A95E2F78095832384BB49C09D
:10097000823391050CF521E330E0281B390B662307
:1009800069F0EBE0F1E0308181E090E002C0880F97
:10099000991F2A95E2F7832B808333C0EBE0F1E0C7
:1009A000308181E090E002C0880F991F2A95E2F71C
:1009B00080958323808325C08633910514F525E334
:1009C00030E0A901481B590BCA01662369F045B103
:1009D00021E030E0B90102C0660F771F8A95E2F787
:1009E000CB01842B85B90DC045B121E030E0B901C0
:1009F00002C0660F771F8A95E2F7CB0180958423AA
:100A000085B9DF91CF910895CF93DF93843091051D
:100A100029F482B385FB882780F96FC08E31910558
:100A200064F420B130E04697A90102C0559547957E
:100A30008A95E2F7CA01817060C08632910584F41C
:100A400026B130E045E250E0BA01681B790BA901FC
:100A500002C0559547956A95E2F7CA0181704DC06D
:100A60008632910529F489B1881F8827881F45C0DF
:100A70008A32910584F422B330E049E250E0BA01B1
:100A8000681B790BA90102C0559547956A95E2F755
:100A9000CA01817032C0823391058CF42091090122
:100AA00030E041E350E0BA01681B790BA90102C0B4
:100AB000559547956A95E2F7CA0181701EC0863345
:100AC000910584F423B130E045E350E0BA01681B9E
:100AD000790BA90102C0559547956A95E2F7CA01BD
:100AE00081700BC0EC0163EA72E08AE894E09CD567
:100AF000BE018AE894E0DFD580E0DF91CF910895D0
:100B0000CF93DF93ECE7F0E02081207E2083EBE7BA
:100B1000F0E02081277F20838830910534F4ECE7D2
:100B2000F0E09081892B80831CC08031910564F4B2
:100B3000EBE7F0E0908198609083ECE7F0E0908143
:100B40008850892B80830DC0EC0165EE72E08AE845
:100B500094E06AD5BE018AE894E0ADD580E090E0EB
:100B60000CC0EAE7F0E0808180648083808186FDAC
:100B7000FDCF8091780090917900DF91CF91089519
:100B800065E273E08AE894E04FD560916904709162
:100B90006A048AE894E06CD56AE273E08AE894E03B
:100BA00043D56091000270E08AE894E061D567E384
:100BB00073E08AE894E038D560915404709155044C
:100BC0008AE894E055D565E473E08AE894E02CD592
:100BD00060914C0470914D048AE894E049D560E539
:100BE00073E08AE894E020D560914B0470E08AE8D5
:100BF00094E03ED56EE573E08AE894E015D5609107
:100C00004704709148048AE894E032D56BE673E0BB
:100C10008AE894E009D560913E0470E08AE894E0A7
:100C200027D56AE773E08AE894E0FED46091610416
:100C3000709162048AE894E01BD56AE873E08AE860
:100C400094E0F2D46091590470915A048AE894E0D7
:100C50000FD56AE973E08AE894E0E6D4609158041D
:100C600070E08AE894E004D56AEA73E08AE894E0E8
:100C7000DBD460915D0470915E048AE894E0F8D45E
:100C800064EB73E08AE894E0CFD460913C04709107
:100C90003D048AE894E0ECD461EC73E08AE894E0E7
:100CA000C3D460913404709135048AE894E0E0D4B0
:100CB0006FEC73E08AE894E0B7D460913A047091E5
:100CC0003B048AE894E0D4D467ED73E08AE894E0CA
:100CD000ABD460913804709139048AE894E0EBC495
:100CE00008952BE634E043E754E064E774E088E7D6
:100CF00094E00DD48091740490917504A0917604D1
:100D0000B0917704B6FD36C0EBE6F4E0818190E067
:100D1000982F88272081820F911D90933D04809306
:100D20003C04838190E0982F88272281820F911DB7
:100D300090933B0480933A04858190E0982F882714
:100D40002481820F911D9093390480933804878108
:100D500090E0982F88272681AC01420F511D5093B7
:100D60003704409336042085820F911D90933504FB
:100D700080933404089560EE73E08AE894E06DD4C3
:100D800099DC16DA21E04DE063E088E794E085D352
:100D9000811106C060EF73E08AE894E05ED405C07C
:100DA00062E174E08AE894E058D460E088E794E077
:100DB000D5D197DF62DCE4DEFCCF8AE894E029D469
:100DC0006FE288E794E05CC308950F931F93CF937D
:100DD000DF931F921F92CDB7DEB700E021E040E81D
:100DE00056E968E970E0CE010196E3D3BE016F5F7A
:100DF0007F4F8CE894E001D40BE011E0F801808192
:100E00008B7F808360EC8CE894E0FDD3F8018081D7
:100E10008460808383EC99E00197F1F700C00000C3
:100E20000F900F90DF91CF911F910F910895FF9236
:100E30000F931F93CF93DF931F921F92CDB7DEB70F
:100E4000F62E00E021E040E856E968E970E0CE01C6
:100E50000196AFD3BE016F5F7F4F8CE894E0CDD396
:100E60000BE011E0F80180818B7F808363E08CE8E8
:100E700094E0C9D36F2D8CE894E0C5D360E08CE892
:100E800094E0C1D3F8019081946090830F900F900B
:100E9000DF91CF911F910F91FF900895CF92DF9234
:100EA000EF92FF920F931F93CF93DF931F921F92A6
:100EB000CDB7DEB7162F6A01F22E00E021E040E840
:100EC00056E968E970E0CE01019673D3BE016F5F09
:100ED0007F4F8CE894E091D3EBE0F1E080818B7F51
:100EE000808363E08CE894E08ED3612F8CE894E0FB
:100EF0008AD3FF2099F08601FA94EF2CF12C8FEF22
:100F0000E81AF80AEC0CFD1C60E08CE894E07BD356
:100F1000F80181938F01EE15FF05B1F7EBE0F1E0E9
:100F20008081846080830F900F90DF91CF911F911B
:100F30000F91FF90EF90DF90CF900895EF92FF9286
:100F40000F931F93CF93DF931F921F92CDB7DEB7FE
:100F5000E62EF42E00E021E040E856E968E970E072
:100F6000CE01019626D3BE016F5F7F4F8CE894E0DF
:100F700044D30BE011E0F80180818B7F808362E035
:100F80008CE894E040D36E2D8CE894E03CD36F2D38
:100F90008CE894E038D3F8018081846080830F90DE
:100FA0000F90DF91CF911F910F91FF90EF900895D7
:100FB000CF92DF92EF92FF920F931F93CF93DF9325
:100FC0001F921F92CDB7DEB7162F6A01F22E00E0F6
:100FD00021E040E856E968E970E0CE010196E9D2E7
:100FE000BE016F5F7F4F8CE894E007D3EBE0F1E048
:100FF00080818B7F808362E08CE894E004D3612F52
:101000008CE894E000D3FF2091F08601FA94EF2C55
:10101000F12C8FEFE81AF80AEC0CFD1CF801619135
:101020008F018CE894E0EFD20E151F05B9F7EBE0C5
:10103000F1E08081846080830F900F90DF91CF91E9
:101040001F910F91FF90EF90DF90CF900895DF9266
:10105000EF92FF920F931F93CF93DF931F921F92F4
:10106000CDB7DEB7D62EE42EF22E00E021E040E828
:1010700056E968E970E0CE0101969BD2BE016F5F30
:101080007F4F8CE894E0B9D20BE011E0F801808149
:101090008B7F808365E08CE894E0B5D26D2D8CE881
:1010A00094E0B1D26E2D8CE894E0ADD26F2D8CE837
:1010B00094E0A9D2F8018081846080830F900F9022
:1010C000DF91CF911F910F91FF90EF90DF900895E6
:1010D0000F931F93CF93DF931F921F92CDB7DEB76D
:1010E00000E021E040E856E968E970E0CE010196B1
:1010F00060D2BE016F5F7F4F8CE894E07ED20BE040
:1011000011E0F80180818B7F808360EA8CE894E0B5
:101110007AD260E08CE894E076D2F8019081946015
:1011200090830F900F90DF91CF911F910F910895B1
:101130000F931F93CF938C01C62F262F40EE6FE0A5
:1011400086DF6FE0C80173DE982F907E81E09C13EC
:1011500001C080E0CF911F910F910895FC01618B38
:10116000E7CF0895CF93DF93EC0140E46AE2E6DE37
:1011700045EE69E2CE01E2DE43E868E2CE01DEDE62
:1011800080E0DF91CF9108950F931F93CF93DF936A
:1011900000D01F92CDB7DEB74130C9F40C831B835A
:1011A000890122273327402F4C71440F440F440FED
:1011B000502F5370450F48604A8316950795129536
:1011C00002950F7001271F700127098311C00C833E
:1011D0001B83890122273327402F4295440F407EED
:1011E0004A831695079516950795169507950983D1
:1011F00024E0AE014F5F5F4FDBDE0F900F900F904A
:101200000F90DF91CF911F910F910895EF92FF9270
:101210000F931F93CF937C0100E010E0980141E011
:1012200060E2B2DF00E010E0980141E064E2C70153
:10123000ABDF00E010E0980141E060E0C701A4DF0F
:1012400000E010E0980140E064E0C7019DDF00E0AD
:1012500010E0980141E068E0C70196DF00E010E08F
:10126000980140E060E1C7018FDF00E010E09801E5
:1012700041E064E1C70188DF00E010E0980140E050
:1012800068E1C70181DFC0E340E06C2FC70156DE93
:1012900060E16C0F40E0C70151DE60E26C0F40E09E
:1012A000C7014CDECF5FCE3379F740E060E6C7017F
:1012B00045DE40E060E7C70141DECF911F910F910D
:1012C000FF90EF900895FF920F931F93CF93DF93BA
:1012D000EC01F62E142F022F78DD80E4898B60E874
:1012E000CE0126DF811135C0402F612FCE013ADFBC
:1012F00081112CC0CE018ADF43E06BE2CE011EDEFD
:101300004CE36CE0CE011ADE40E06DE0CE0116DE6B
:10131000FF2071F083E0F8121BC024E644E660E68B
:10132000CE0195DE20E640E660E7CE0190DE0AC001
:1013300024E044E660E6CE018ADE20E040E660E795
:10134000CE0185DE6989CE01F3DE03C080E001C0F5
:1013500081E0DF91CF911F910F91FF900895EF925F
:10136000FF920F931F93CF93DF9300D01F92CDB7BF
:10137000DEB77A018901FA011082F9011082118227
:101380001282138224E0AE014F5F5F4F87DD2A8116
:101390003981822F90E095958795959587959595BC
:1013A00087959595879595958795F8E03F9F800D52
:1013B000911D1124092E000CAA0BBB0BF801808390
:1013C0009183A283B38323FF26C0880F991FAA1F8E
:1013D000BB1F880F991FAA1FBB1F2370820F911D6F
:1013E000A11DB11DBA2FA92F982F88272B81820FFD
:1013F000911DA11DB11DBA2FA92F982F88272C81CF
:10140000820F911DA11DB11D80839183A283B3839F
:1014100081E0F70180830F900F900F900F90DF9184
:10142000CF911F910F91FF90EF9008950F931F930D
:10143000CF93DF93EC01162F9C012F5F3F4FAC0140
:101440008EDF6FEF610FCE01F2DC082F64E0610FD9
:10145000CE01EDDC8D8303FF03C091E09E8701C0C8
:101460001E86282F2F702D83AE014A5F5F4F65E0E7
:10147000610FCE0113DDDF91CF911F910F91089580
:10148000FC01608BEBE0F1E0808184608083EAE026
:10149000F1E08081846080830895FF920F931F9311
:1014A000CF93DF93EC01162F042FF22E90D02F2D27
:1014B000402F612FCE0107DF91E0811101C090E044
:1014C000892FDF91CF911F910F91FF900895CF93B6
:1014D000DF93EC01FDDD80FF0AC061E6CE01A6DFEF
:1014E00020E041E06CE2CE01B2DD80E00DC081FF82
:1014F0000AC061E7CE019ADF20E042E06CE2CE0153
:10150000A6DD80E001C084E0DF91CF910895CF9205
:10151000DF92EF92FF920F931F93CF93DF93EC0133
:101520007B018A01C22ED32ED2DF8430C9F188819B
:10153000882349F089819A81AB81BC81B068898315
:101540009A83AB83BC838E85882349F089819A81F5
:10155000AB81BC81B06489839A83AB83BC8389816E
:101560009A81AB81BC81F70180839183A283B3838D
:101570008D81F80180838D81882389F0DE011696A4
:10158000EC2DFD2D20E030E08D9181932F5F3F4FBA
:101590008D8190E028173907BCF380E001C080E01E
:1015A000DF91CF911F910F91FF90EF90DF90CF903F
:1015B00008950F93FC01222311F090E501C090E7FC
:1015C0000C70092B008381E081830F910895F894BA
:1015D00080918B0481110BC0589A209A84B1866047
:1015E00084B98CB580618CBD8CB580648CBD8091D4
:1015F0008B048F5F80938B040895FB0180818CBDE9
:1016000081818DBD08956EBD0DB407FEFDCF8EB5F1
:10161000089588E08093C10096E09093C2001092F4
:10162000C5008093C4000895CF93DF93FB019081A0
:10163000992381F020E0E0ECF0E0C6ECD0E080817E
:1016400085FFFDCF98832F5FDB01A20FB11D9C9119
:101650009111F5CFDF91CF910895CF93DF93EC01F6
:10166000E3DF60E374E0CE01DFDFDF91CF91089527
:101670000F931F93CF93DF93CDB7DEB760970FB66D
:10168000F894DEBF0FBECDBF8C01CB014AE0BE0196
:101690006F5F7F4FA2D1BE016F5F7F4FC801C4DF74
:1016A00060960FB6F894DEBF0FBECDBFDF91CF912D
:1016B0001F910F910895CF93DF93EC01D9DF60E381
:1016C00074E0CE01B1DFDF91CF91089504D068942A
:1016D000B1118DC0089570D088F09F5790F0B92F48
:1016E0009927B751A0F0D1F0660F771F881F991F77
:1016F0001AF0BA95C9F712C0B13081F077D0B1E0D5
:10170000089574C0672F782F8827B85F39F0B93FE4
:10171000CCF3869577956795B395D9F73EF4909578
:101720008095709561957F4F8F4F9F4F0895E894F6
:1017300009C097FB3EF490958095709561957F4F19
:101740008F4F9F4F9923A9F0F92F96E9BB279395C7
:10175000F695879577956795B795F111F8CFFAF4D7
:10176000BB0F11F460FF1BC06F5F7F4F8F4F9F4F08
:1017700016C0882311F096E911C0772321F09EE866
:10178000872F762F05C0662371F096E8862F70E0CC
:1017900060E02AF09A95660F771F881FDAF7880FA6
:1017A0009695879597F9089557FD9058440F551FC2
:1017B00059F05F3F71F04795880F97FB991F61F0D3
:1017C0009F3F79F087950895121613061406551F4A
:1017D000F2CF4695F1DF08C0161617061806991FB6
:1017E000F1CF86957105610508940895E894BB27AB
:1017F00066277727CB0197F908950BD078C069D079
:1018000028F06ED018F0952309F05AC05FC011245B
:10181000EECFCADFA0F3959FD1F3950F50E0551F8F
:10182000629FF001729FBB27F00DB11D639FAA2735
:10183000F00DB11DAA1F649F6627B00DA11D661F84
:10184000829F2227B00DA11D621F739FB00DA11DA5
:10185000621F839FA00D611D221F749F3327A00D5F
:10186000611D231F849F600D211D822F762F6A2FFB
:1018700011249F5750408AF0E1F088234AF0EE0F80
:10188000FF1FBB1F661F771F881F91505040A9F78D
:101890009E3F510570F014C0AACF5F3FECF3983E15
:1018A000DCF3869577956795B795F795E7959F5FF4
:1018B000C1F7FE2B880F911D9695879597F908958E
:1018C00097F99F6780E870E060E008959FEF80ECF3
:1018D000089500240A941616170618060906089596
:1018E00000240A9412161306140605060895092EFC
:1018F0000394000C11F4882352F0BB0F40F4BF2B6B
:1019000011F460FF04C06F5F7F4F8F4F9F4F0895AA
:10191000052E97FB16F400940FD057FD05D02CD060
:1019200007FC02D046F408C05095409530952195AB
:101930003F4F4F4F5F4F08959095809570956195FB
:101940007F4F8F4F9F4F0895EE0FFF1F881F8BBF54
:101950000790F691E02D199431D0B7FF0895821BBE
:10196000930B08952BD0A59F900DB49F900DA49F2D
:10197000800D911D11240895A1E21A2EAA1BBB1BF4
:10198000FD010DC0AA1FBB1FEE1FFF1FA217B3074B
:10199000E407F50720F0A21BB30BE40BF50B661F61
:1019A000771F881F991F1A9469F760957095809525
:1019B00090959B01AC01BD01CF010895A29FB0019C
:1019C000B39FC001A39F700D811D1124911DB29F73
:1019D000700D811D1124911D0895BB274A3031F4EB
:1019E000992322F4BDE2909581959F4F01C0BB27BA
:1019F000FB015527AA27880F991FAA1FA41710F0CB
:101A0000A41B83955051B9F7A05DAA3308F0A95DD6
:101A1000A193009779F7B111B1931192CB0100C056
:101A2000DC01FC01672F71917723E1F7329704C045
:101A30007C916D9370836291AE17BF07C8F30895D0
:041A4000F894FFCF48
:101A4400014170706C79696E6720494F2073657429
:101A540074696E67732E2E2E00494F20736574745B
:101A6400696E672067656E657261746564004552CE
:101A7400524F523A20747269656420746F207772F1
:101A840069746520616E616C6F672076616C756541
:101A940020746F20756E737570706F727465642036
:101AA40070696E004552524F523A207472696564EF
:101AB40020746F2077726974652064696769746142
:101AC4006C2076616C756520746F20756E7375700B
:101AD400706F72746564206469676974616C2070E6
:101AE400696E004552524F523A20747269656420FF
:101AF400746F2072656164206469676974616C2025
:101B040076616C75652066726F6D20756E73757085
:101B1400706F72746564206469676974616C2070A5
:101B2400696E3A20004552524F523A2074726965E8
:101B34006420746F207265616420646967697461EC
:101B44006C2076616C75652066726F6D20756E739E
:101B54007570706F7274656420616E616C6F67205C
:101B640070696E2000444D3A2000206472697665E5
:101B7400206469723A200020656E67696E655F644F
:101B840076203D20002073706565642E203D200082
:101B940020656E67696E655F6F76203D2000206268
:101BA40072616B655F6476203D2000206272616B18
:101BB400696E675F6F76203D2000207374656572DF
:101BC400696E675F6476203D2000207374656572DA
:101BD400696E675F6376203D2000207374656572CB
:101BE400696E675F6F76203D20002064656C7461C8
:101BF400203D2000206C6F7720766F6C74203D2090
:101C040000206869676820766F6C74203D2000208E
:101C140072706D203D20002074656D70203D2000A1
:101C2400416C6C657920486F6F702056322E3100FC
:101C34004D43503235313520496E697469616C69A0
:101C44007A6564205375636365737366756C6C7928
:101C540021004572726F7220496E697469616C6902
:101C64007A696E67204D4350323531352E2E2E0061
:041C74000A0D000055
:00000001FF
